:03000000020026D5
:0C002600787FE4F6D8FD75812002006DA3
:03024B0001130399
:10014A007F3812022E7F0C12022E7F0612022E7F99
:10015A000112022E7F8612022EE4FFC3940A400483
:10016A007E3780027E30EE2FFF1202527F03EFC3EA
:10017A00940A40047E3780027E30EE2FFF1202522C
:05018A007F3A02025261
:0A0239007F8912022EAF99020252D3
:050259007F33020243A7
:1001DD007598F0E4F587758920AF1C8F8B8F8DD2C4
:0601ED008ED2AFD2AC225D
:1001C30012014A1201DD7510FF751102751239759E
:0A01D30014FF75150275165980FE21
:030023000200B226
:1000B200C0E0C0F0C083C082C0D075D000C000C014
:1000C20001C002C003C004C005C006C007C2AC859F
:1000D200140D85150E85160FAB10AA11A912AF13B8
:1000E200120102D2ACD007D006D005D004D003D082
:1000F20002D001D000D0D0D082D083D0F0D0E03274
:100208007580FFC2A2C2A0D2A1D2A2AF80EF20E720
:03021800F2C2A28D
:01021B0022C0
:0B022E00EF6007C200F50812021C225E
:07025200D2008F0802021C1C
:10021C00120208C2A1A20092A0850880D2A200C23C
:02022C00A2220C
:03024E00011CFD93
:080243008F993099FDC2992248
:1001F300EF1FAA0670011E4A600A7D7BAC051DEC49
:0402030060EE80F831
:0102070022D4
:10018F008B178A1889198C1A8D1BAB17AA18A919E6
:10019F00120003601A0519E5197002051814F912F7
:1001AF000003FF120243AF1BAE1A1201F380DB7F75
:0401BF0024020243D1
:100102008B0A8A0B890C30983DC298309A0CE5997B
:100112006F6003EF7030C29D802CE599B42416E520
:100122000E450F450D600AEF6007AA0EA90F1200D7
:100132001CD29D8011E50B450C450A6007AA0BA94C
:080142000C12001CD322C322A1
:100032000201C3E493A3F8E493A34003F68001F220
:1000420008DFF48029E493A3F85407240CC8C333CF
:10005200C4540F4420C8834004F456800146F6DF9E
:10006200E4800B010204081020408090024BE47EE1
:10007200019360BCA3FF543F30E509541FFEE49393
:10008200A360010ECF54C025E060A840B8E493A35A
:10009200FAE493A3F8E493A3C8C582C8CAC583CA85
:1000A200F0A3C8C582C8CAC583CADFE9DEE780BE3D
:0102510000AC
:10000300BB010689828A83E0225002E722BBFE02FB
:09001300E32289828A83E493222E
:06001C008A838982E4736F
:00000001FF
