:03000000020026D5
:0C002600787FE4F6D8FD75812002006DA3
:0301E20001130402
:100102007F381201C57F0C1201C57F061201C57F1F
:10011200011201C57F861201C5E4FFC3940A40049F
:100122007E3780027E30EE2FFF1201E97F04EFC39B
:10013200940A40047E3780027E30EE2FFF1201E9DE
:050142007F3A0201E913
:0A01D0007F891201C5AF990201E911
:0501F0007F340201DA7A
:100189007598F0E4F587758920AF178F8B8F8DD21D
:060199008ED2AFD2AC22B1
:100003001201021201897510FF7511017512D07565
:0A00130014FF7515017516F080FE4C
:030023000200B226
:1000B200C0E0C0F0C083C082C0D075D000C000C014
:1000C20001C002C003C004C005C006C007C2AC859F
:1000D200140D85150E85160FAB10AA11A912AF13B8
:1000E200120147D2ACD007D006D005D004D003D03D
:1000F20002D001D000D0D0D082D083D0F0D0E03274
:10019F007580FFC2A2C2A0D2A1D2A2AF80EF20E78A
:0301AF00F2C2A2F7
:0101B200222A
:0B01C500EF6007C200F5081201B32232
:0701E900D2008F080201B3F0
:1001B30012019FC2A1A20092A0850880D2A200C210
:0201C300A22276
:0801DA008F993099FDC29922B2
:100147008B0A8A0B890C309837C298309A09E5993F
:100157006F702DC29D8029E599B42413E50E450FD4
:10016700450D6007AA0EA90F12001DD29D8011E54B
:100177000B450C450A6007AA0BA90C12001DD322D8
:02018700C32291
:0301E5000117FD02
:10003200020003E493A3F8E493A34003F68001F2E1
:1000420008DFF48029E493A3F85407240CC8C333CF
:10005200C4540F4420C8834004F456800146F6DF9E
:10006200E4800B01020408102040809001E2E47E4B
:10007200019360BCA3FF543F30E509541FFEE49393
:10008200A360010ECF54C025E060A840B8E493A35A
:10009200FAE493A3F8E493A3C8C582C8CAC583CA85
:1000A200F0A3C8C582C8CAC583CADFE9DEE780BE3D
:0101E8000016
:06001D008A838982E4736E
:00000001FF
