:03000000020026D5
:0C002600787FE4F6D8FD75812002006DA3
:0301F000011300F8
:100152007F381201D37F0C1201D37F061201D37FA5
:10016200011201D37F861201D3E4FFC3940A400433
:100172007E3780027E30EE2FFF1201F77F01EFC340
:10018200940A40047E3780027E30EE2FFF1201F780
:050192007F3A0201F7B5
:0A01DE007F891201D37F590201F757
:0501FE007F310201E861
:100197007598F0E4F587758920AF178F8B8F8DD20F
:0601A7008ED2AFD2AC22A3
:100003001201521201977510FF7511017512DE75F9
:0A00130014FF7515017516FE80FE3E
:030023000200B226
:1000B200C0E0C0F0C083C082C0D075D000C000C014
:1000C20001C002C003C004C005C006C007C2AC859F
:1000D200140D85150E85160FAB10AA11A912AF13B8
:1000E200120102D2ACD007D006D005D004D003D082
:1000F20002D001D000D0D0D082D083D0F0D0E03274
:1001AD007580FFC2A2C2A0D2A1D2A2AF80EF20E77C
:0301BD00F2C2A2E9
:0101C000221C
:0B01D300EF6007C200F5081201C12216
:0701F700D2008F080201C1D4
:1001C1001201ADC2A1A20092A0850880D2A200C2F4
:0201D100A22268
:0801E8008F993099FDC29922A4
:100102008B0A8A0B890C309845C298309A0CE59973
:100112006F6003EF7038C29D8034E599B4241EE508
:100122000E450F450D6012BF010FEFF404C394108A
:100132005007AA0EA90F12001DD29D8011E50B4592
:100142000C450A6007AA0BA90C12001DD322C32278
:0301F3000117FDF4
:10003200020003E493A3F8E493A34003F68001F2E1
:1000420008DFF48029E493A3F85407240CC8C333CF
:10005200C4540F4420C8834004F456800146F6DF9E
:10006200E4800B01020408102040809001F0E47E3D
:10007200019360BCA3FF543F30E509541FFEE49393
:10008200A360010ECF54C025E060A840B8E493A35A
:10009200FAE493A3F8E493A3C8C582C8CAC583CA85
:1000A200F0A3C8C582C8CAC583CADFE9DEE780BE3D
:0101F6000008
:06001D008A838982E4736E
:00000001FF
