:03000000020026D5
:0C002600787FE4F6D8FD75812002006DA3
:0301AD00010B043F
:10010A007F381201A27F0C1201A27F061201A27F80
:10011A00011201A27F861201A2E4FFC3940A4004DD
:10012A007E3780027E30EE2FFF1201B47F04EFC3C8
:10013A00940A40047E3780027E30EE2FFF1201B40B
:05014A007F3A0201B440
:0C0196008F0D7F891201A2AF0D0201B491
:100003007598F4E4F587758920AF0F8F8B8F8DD2A8
:060013008ED2AFD2AC2238
:0800190012010A12000380FE2F
:030023000200B226
:1000B200C0E0C0F0C083C082C0D075D000C000C014
:1000C20001C002C003C004C005C006C007C2ACAF75
:1000D2000B12014F50157BFF7A0179968B088A0922
:1000E200890A89828A83AF991201BFD2ACD007D024
:1000F20006D005D004D003D002D001D000D0D0D099
:0801020082D083D0F0D0E0327E
:100170007580FFC2A2C2A0D2A1D2A2AF80EF20E7B9
:03018000F2C2A226
:010183002259
:0B01A200EF6007C201F50E120184227D
:0701B400D2018F0E0201844D
:10018400120170C2A1A20192A0850E80D2A200C267
:02019400A222A5
:0301B000010FFD3F
:10014F0030981CC298309A0CE5996F6003EF700FCE
:10015F00C29D800BE599B42404D29D8002D322C3A3
:01016F00226D
:10003200020019E493A3F8E493A34003F68001F2CB
:1000420008DFF48029E493A3F85407240CC8C333CF
:10005200C4540F4420C8834004F456800146F6DF9E
:10006200E4800B01020408102040809001ADE47E80
:10007200019360BCA3FF543F30E509541FFEE49393
:10008200A360010ECF54C025E060A840B8E493A35A
:10009200FAE493A3F8E493A3C8C582C8CAC583CA85
:1000A200F0A3C8C582C8CAC583CADFE9DEE780BE3D
:0101B300004B
:0601BB008A838982E473CF
:00000001FF
