:03000000020026D5
:0C002600787FE4F6D8FD75812002006DA3
:03020D00010B00E2
:1001C000E599C3944140047F3780027F30C3E599AD
:0401D0009FF59022E5
:05021B007F3002020526
:100195007598F0E4F587758920AF1C8F8B8F8DD20C
:0601A5008ED2AFD2AC22A5
:10017E001201957508FF750901750AC0750CFF759A
:07018E000D02750E1B80FE3F
:030023000200B226
:1000B200C0E0C0F0C083C082C0D075D000C000C014
:1000C20001C002C003C004C005C006C007C2AC859F
:1000D2000C13850D14850E15AB08AA09A90AAF0BDE
:1000E200120102D2ACD007D006D005D004D003D082
:1000F20002D001D000D0D0D082D083D0F0D0E03274
:1001D4007580FFC2A2C2A0D2A1D2A2AF80EF20E755
:0301E400F2C2A2C2
:0101E70022F5
:0B01FA00EF6007C200F51B1201E822B5
:07021400D2008F1B0201E87C
:1001E8001201D4C2A1A20092A0851B80D2A200C293
:0201F800A22241
:03021000011CFDD1
:080205008F993099FDC2992286
:1001AB00EF1FAA0670011E4A600A7D7BAC051DEC91
:0401BB0060EE80F87A
:0101BF00221D
:10014A008B168A1789188C198D1AAB16AA17A91833
:10015A00120003601A0518E5187002051714F9123F
:10016A000003FF120205AF1AAE191201AB80DB7F42
:04017A002402020554
:100102008B108A11891230983DC298309A0CE59969
:100112006F6003EF7030C29D802CE599B42416E520
:100122001445154513600AEF6007AA14A9151200B9
:100132001CD29D8011E511451245106007AA11A934
:080142001212001CD322C3229B
:1000320002017EE493A3F8E493A34003F68001F265
:1000420008DFF48029E493A3F85407240CC8C333CF
:10005200C4540F4420C8834004F456800146F6DF9E
:10006200E4800B010204081020408090020DE47E1F
:10007200019360BCA3FF543F30E509541FFEE49393
:10008200A360010ECF54C025E060A840B8E493A35A
:10009200FAE493A3F8E493A3C8C582C8CAC583CA85
:1000A200F0A3C8C582C8CAC583CADFE9DEE780BE3D
:0102130000EA
:10000300BB010689828A83E0225002E722BBFE02FB
:09001300E32289828A83E493222E
:06001C008A838982E4736F
:00000001FF
