:03000000020026D5
:0C002600787FE4F6D8FD75812002006DA3
:0301E800011304FC
:10014A007F381201CB7F0C1201CB7F061201CB7FC5
:10015A00011201CB7F861201CBE4FFC3940A40044B
:10016A007E3780027E30EE2FFF1201EF7F04EFC34D
:10017A00940A40047E3780027E30EE2FFF1201EF90
:05018A007F3A0201EFC5
:0A01D6007F891201CBAF990201EFFF
:0501F6007F340201E06E
:10018F007598F0E4F587758920AF178F8B8F8DD217
:06019F008ED2AFD2AC22AB
:1000030012014A12018F7510FF7511017512D67511
:0A00130014FF7515017516F680FE46
:030023000200B226
:1000B200C0E0C0F0C083C082C0D075D000C000C014
:1000C20001C002C003C004C005C006C007C2AC859F
:1000D200140D85150E85160FAB10AA11A912AF13B8
:1000E200120102D2ACD007D006D005D004D003D082
:1000F20002D001D000D0D0D082D083D0F0D0E03274
:1001A5007580FFC2A2C2A0D2A1D2A2AF80EF20E784
:0301B500F2C2A2F1
:0101B8002224
:0B01CB00EF6007C200F5081201B92226
:0701EF00D2008F080201B9E4
:1001B9001201A5C2A1A20092A0850880D2A200C204
:0201C900A22270
:0301EB000117FDFC
:0801E0008F993099FDC29922AC
:100102008B0A8A0B890C30983DC298309A0CE5997B
:100112006F6003EF7030C29D802CE599B42416E520
:100122000E450F450D600AEF6007AA0EA90F1200D7
:100132001DD29D8011E50B450C450A6007AA0BA94B
:080142000C12001DD322C322A0
:10003200020003E493A3F8E493A34003F68001F2E1
:1000420008DFF48029E493A3F85407240CC8C333CF
:10005200C4540F4420C8834004F456800146F6DF9E
:10006200E4800B01020408102040809001E8E47E45
:10007200019360BCA3FF543F30E509541FFEE49393
:10008200A360010ECF54C025E060A840B8E493A35A
:10009200FAE493A3F8E493A3C8C582C8CAC583CA85
:1000A200F0A3C8C582C8CAC583CADFE9DEE780BE3D
:0101EE000010
:06001D008A838982E4736E
:00000001FF
