:030000000204A94E
:0C04A900787FE4F6D8FD7581680204F04D
:080A2E00070B0D0E70B0D0E0C3
:090A1600C100C1010364030000EA
:10094800759850E4F587758920AF688F8B8F8DD2A5
:0B0958008E759A5085689C758E1022E9
:100928001209C51209487B007A0079647D01120911
:1009380007C2037FFA1209AF1209631208E580FBA8
:10053500751900751A00751B092000031207DE30B6
:1005450000778060AB19AA1AA91B120834920450CF
:1005550062AB19AA1AA91B1202F9FF605624FC7096
:1005650040900001120312FF900002120312FD12C7
:1005750003D8401EAB19AA1AA91B740412033FAB7A
:1005850019AA1AA91B90000274FF1203517D0312C8
:10059500090730000CAB19AA1AA91BC2027D0580F8
:1005A5000D30000F7B007A007964C2027D031209C9
:0905B500978091200403120A0949
:0105BE00221A
:1008E5007B017A00790075340075350AD2027D885E
:1008F5007C1312074FAD077B017A007900C2020213
:02090500099750
:06082E007B007A00791C3A
:060834008B618A628963FA
:10083A0075340075350AC2027D287C0012074FAD57
:0A084A0007AB61AA62A9631207144C
:010854002281
:0D0A0900C2037FF61209AF120963C200227A
:1007DE00200024C2037FF01209AF12082E920020CF
:1007EE000015120A09C2037FF01209AF12082E92E9
:0707FE0000200003120A09AC
:0108050022D0
:1009EB008F67D2037F011209AFD203AF670209AF42
:08087B00AB2CAA2DA92EAD261D
:100883008B558A5689578D58D203AF581209AFAB8F
:0C08930055AA56A957D202AD5802099789
:0F06C900754D00754E00754F00AB5AAA5BA95CCA
:0606D8008B4A8A4B894C9D
:1006DE00E924FFF9EA34FFFA75340075350AD202BF
:1006EE007DC87C0012074FAD071DE54E454F454DA9
:1006FE00600AAB4DAA4EA94FED12033FAB4AAA4B6F
:05070E00A94C120714C4
:0107130022C3
:0E09FB00439A087FF61209EB120963C201222B
:10089F008F598B5A8A5B895C7FF51209EB1206C957
:1008AF00920120010D1209FBAF591209EB1206C973
:0308BF0092012281
:0205BF008F3972
:1005C100753F0075400075413B439A0830010312A5
:1005D10009FBAF391209EB754D00754E00754F00DF
:1005E100AB3FAA40A9411206D8920120010BAB3FB3
:1005F100AA40A941AF3912089F30013EAB3FAA4042
:10060100A9411202F9B4010C900001120312B5398B
:1006110003D38001C39201200120AF3912089FAB9F
:100621003FAA40A9411202F9B4010C900001120342
:1006310012B53903D38001C392012001030209FBE2
:03064100539AF7D2
:010644002293
:0A03D8008F218D228B238A248925B2
:1003E200752C00752D00752E28120A09AF211209ED
:1003F200EBAF211205BF300172AB2CAA2DA92E74CE
:100402001112033FAB2CAA2DA92E900001E5221256
:1004120003517D021209078F26AB2CAA2DA92EC2E9
:1004220002AD2612099712087B754D00754E0075B4
:100432004F26AB23AA24A9251206D89205401712EB
:10044200087B754D00754E00754F26AB23AA24A973
:10045200251206D89205E526600CAB23AA24A9250D
:10046200C202FD1209971209FB8025AB2CAA2DA905
:100472002EE412033FAB2CAA2DA92E7D01120907EF
:10048200AD07AB2CAA2DA92EC2021209971209633D
:1004920020050EAB23AA24A925900001E521120311
:0604A200511207DEA20565
:0104A8002231
:040963007F0A7E0089
:10096700EF4E6011EF1F70011E7D0BED60F27CF8FA
:05097700DCFE1D80F60E
:01097C002258
:1006450078427C007D007BFF7A0A792E7E007F044C
:100655001202D378467C007D007BFF7A0A79327ED0
:10066500007F041202D375A00FE5A0640F604FABA5
:10067500A07F057E00120967EB65A0704175A0F0AB
:10068500E5A064F06038AAA07F057E00120967EA3C
:1006950065A0702A7F0374422FF8E6B50302AB0705
:1006A50074462FF8E6B50206EF25E025E0FA1FC3EC
:1006B500EF6480948050DF75A00FEB4AFF2275A090
:0306C5000F7FFFA5
:0106C800220F
:100783008B508A5189528C538D54AB50AA51A95224
:100793001202F9601A0552E5527002055114F9125A
:1007A30002F9FF120A36AF54AE5312096780DB22F7
:1009C5007F38120A237F0E120A237F06120A237F1D
:0409D50001020A23EE
:1000030000102030405060708191A1B1C1D1E1F165
:1000130012023222524272629383B3A3D3C3F3E335
:100023002434041464744454A5B58595E5F5C5D505
:100033003626160676665646B7A79787F7E7D7C7D5
:100043004858687808182838C9D9E9F98999A9B9A5
:100053005A4A7A6A1A0A3A2ADBCBFBEB9B8BBBAB75
:100063006C7C4C5C2C3C0C1CEDFDCDDDADBD8D9D45
:100073007E6E5E4E3E2E1E0EFFEFDFCFBFAF9F8F15
:100083009181B1A1D1C1F1E11000302050407060E5
:100093008393A3B3C3D3E3F30212223242526272B5
:1000A300B5A59585F5E5D5C5342414047464544485
:1000B300A7B78797E7F7C7D7263606166676465655
:1000C300D9C9F9E99989B9A9584878681808382825
:1000D300CBDBEBFB8B9BABBB4A5A6A7A0A1A2A3AF5
:1000E300FDEDDDCDBDAD9D8D7C6C5C4C3C2C1C0CC5
:1000F300EFFFCFDFAFBF8F9F6E7E4E5E2E3E0E1E95
:100103000021426384A5C6E708294A6B8CADCEEF74
:1001130031107352B594F7D639187B5ABD9CFFDE64
:1001230062432001E6C7A4856A4B2809EECFAC8D54
:1001330053721130D7F695B45B7A1938DFFE9DBC44
:10014300C4E586A740610223CCED8EAF48690A2B34
:10015300F5D4B79671503312FDDCBF9E79583B1A24
:10016300A687E4C522036041AE8FECCD2A0B684914
:1001730097B6D5F4133251709FBEDDFC1B3A597804
:1001830088A9CAEB0C2D4E6F80A1C2E304254667F4
:10019300B998FBDA3D1C7F5EB190F3D235147756E4
:1001A300EACBA8896E4F2C0DE2C3A08166472405D4
:1001B300DBFA99B85F7E1D3CD3F291B057761534C4
:1001C3004C6D0E2FC8E98AAB44650627C0E182A3B4
:1001D3007D5C3F1EF9D8BB9A75543716F1D0B392A4
:1001E3002E0F6C4DAA8BE8C926076445A283E0C194
:1001F3001F3E5D7C9BBAD9F81736557493B2D1F084
:1007B300E4F532F533ED601E1202F96532FF900065
:1007C30003936533F532EF90010393F533740129F5
:0A07D300F9E43AFADDE2AE32AF338A
:0107DD0022F9
:100907008B2F8A308931AC051207B3AB2FAA30A9D8
:10091700318C82758300EE8FF01203ABEC2402FF5B
:0109270022AD
:100714008B5D8A5E895F8D60E560C394025002C37D
:100724002215601560AB5DAA5EA95FAD601207B3C8
:10073400AB5DAA5EA95F856082758300120373B501
:0B0744000707EEB5F003D38001C322CD
:030A1F000168FD6E
:10097D007F017580FFC2B4C2B5D2B6D2B4AE80EEDF
:09098D0030E7040FEF70EEC2B474
:01099600223E
:0B0A2300EF6007C2028F2F1209D922DA
:070A3600D2028F2F0209D943
:1009D90012097DC2B6A20292B5852F80D2B400C297
:0209E900B42236
:1009AF0030030B8F9BE59A30E1FB539AFD228F9911
:0609BF003099FDC29922EF
:10099700ED60141202F9FFA20292031209AF74016B
:0809A70029F9E43AFADDEC2223
:1008C2003098028013EF4E6018EF1F70011E7D0BEF
:1008D200ED60F27C7C309804C298D322DCF71D8054
:0208E200EFC362
:0108E40022F1
:10080600E59A30E0028015EF4E601BEF1F70011E67
:100816007D19ED60F27C2BE59A30E005539AFED304
:0708260022DCF41D80ECC38D
:01082D0022A8
:100855008C378D3830030DAF38AE3712080650147B
:10086500E59B800BAF38AE371208C25007E59912E9
:06087500033FD322C32261
:06074F008B2F8A30893176
:10075500E4F536A2029203120855501F74012531A3
:10076500F531E43530F5300536AB2FFAA931A20263
:0D0775009203AD35AC3412085540E1AF36AB
:010782002254
:1004B500020928E493A3F8E493A34003F68001F22C
:1004C50008DFF48029E493A3F85407240CC8C33348
:1004D500C4540F4420C8834004F456800146F6DF17
:1004E500E4800B0102040810204080900A16E47E87
:1004F500019360BCA3FF543F30E509541FFEE4930C
:10050500A360010ECF54C025E060A840B8E493A3D2
:10051500FAE493A3F8E493A3C8C582C8CAC583CAFD
:10052500F0A3C8C582C8CAC583CADFE9DEE780BEB5
:010A220000D3
:10020300E709F608DFFA8046E709F208DFFA803EDD
:1002130088828C83E709F0A3DFFA8032E309F608CA
:10022300DFFA8078E309F208DFFA807088828C8332
:10023300E309F0A3DFFA806489828A83E0A3F608E6
:10024300DFFA805889828A83E0A3F208DFFA804CC0
:1002530080D280FA80C680D4806980F28033801097
:1002630080A680EA809A80A880DA80E280CA803300
:1002730089828A83ECFAE493A3C8C582C8CCC58378
:10028300CCF0A3C8C582C8CCC583CCDFE9DEE78048
:100293000D89828A83E493A3F608DFF9ECFAA9F0C7
:1002A300EDFB2289828A83ECFAE0A3C8C582C8CC1D
:1002B300C583CCF0A3C8C582C8CCC583CCDFEADE36
:1002C300E880DB89828A83E493A3F208DFF980CC98
:1002D30088F0EF60010E4E60C388F0ED2402B40491
:1002E3000050B9F582EB2402B4040050AF23234538
:0602F30082239002537308
:1002F900BB010689828A83E0225002E722BBFE0203
:09030900E32289828A83E4932235
:10031200BB010CE58229F582E5833AF583E02250A0
:1003220006E92582F8E622BBFE06E92582F8E222EA
:0D033200E58229F582E5833AF583E4932204
:10033F00BB010689828A83F0225002F722BBFE019D
:02034F00F32297
:10035100F8BB010DE58229F582E5833AF583E8F0E2
:10036100225006E92582C8F622BBFE05E92582C88E
:02037100F22276
:10037300BB0110E58229F582E5833AF583E0F5F0C8
:10038300A3E0225009E92582F886F008E622BBFEA5
:100393000AE92582F8E2F5F008E222E5832AF583EB
:0803A300E993F5F0A3E99322B0
:1003AB00F8BB0111E58229F582E5833AF583E8F084
:1003BB00E5F0A3F0225009E92582C8F608A6F02241
:0D03CB00BBFE09E92582C8F2E5F008F22228
:00000001FF
