:0300000002043BBC
:0C043B00787FE4F6D8FD75813802048259
:0806F500070B0D0E70B0D0E000
:1006C6007598D0E4F587758920AF388F8B8F8DD2DA
:0206D6008E2272
:030710000206C618
:1004C700780A7C007D007BFF7A0679F57E007F0441
:1004D7001202D3780E7C007D007BFF7A0679F97EC5
:1004E700007F041202D375900FE590640F60568564
:1004F70090087F057E0012069DE508659070467599
:1005070090F0E59064F0603D8590097F057E0012CC
:10051700069DE5096590702D7F03740A2FF8E6B5EF
:1005270008028F08740E2FF8E6B50907EF25E025B6
:10053700E0F5091FC3EF6480948050DE75900FE5E6
:0A054700084509FF2275900F7FFFA1
:010551002287
:10069D00EF1FAA0670011E4A600A7D7BAC051DEC9A
:0406AD0060EE80F883
:0106B1002226
:1005ED008B1B8A1C891D8C1E8D1FAB1BAA1CA91D64
:1005FD001202F9601A051DE51D7002051C14F91291
:10060D0002F9FF120705AF1FAE1E12069D80DB22F9
:1006B2007F381206EA7F0E1206EA7F061206EA7FEA
:0406C200010206EA41
:100683007F017580FFC2B4C2B5D2B6D2B4AE80EEDC
:0906930030E7040FEF70EEC2B471
:01069C00223B
:0B06EA00EF6007C200F5371206D822AF
:07070500D2008F370206D875
:1006D800120683C2B6A20092B5853780D2B400C292
:0206E800B4223A
:0806FD008F993099FDC299228A
:10066800ED60171202F9FF1206FDAF34EF6002DFEA
:0A067800FE740129F9E43AFADDE905
:010682002255
:100648003098028015EF1FAA0670011E4A600F7DC0
:0F0658007BAC051DEC60EE3098F7C298D322C33F
:010667002270
:1005A3008B218A228923C29DAF28AE271206485089
:1005B30037E5996424601EE522452345216007AA97
:1005C30022A923120394E59964246009AF28AE2776
:1005D30012064840E2E525452645246007AA25A9D9
:0A05E30026120394D29DD322C322F6
:100552008F128B138A148915D29DAF1AAE19120607
:1005620048503C309A39E59965126004E512702FC3
:10057200E512600AC374FF9512C3941050097516F0
:10058200007517007518008516248517258518260D
:10059200851927851A28AB13AA14A9150205A3C326
:0105A2002236
:06039A008B2B8A2C892D3B
:1003A000852E82758300E4120372E52E7003020429
:1003B0003AF52FED64026011ED6408600CED640AFB
:1003C0006007ED641060027D0AEF800BE52E60216E
:1003D000EF8DF084FF601A8DF084E5F02430AB2BB4
:1003E000AA2CA92D152E852E8275830012037280EA
:1003F000DBED6410702BAF2F152FEFD3952E40211E
:10040000AB2BAA2CA92D852F82758300120312D342
:10041000943940E2852F82758300740712033F8070
:10042000D5E52E6015AB2BAA2CA92D152E852E8275
:0A043000758300742012037280E748
:01043A00229F
:03070C000138FDB4
:1000030000102030405060708191A1B1C1D1E1F165
:1000130012023222524272629383B3A3D3C3F3E335
:100023002434041464744454A5B58595E5F5C5D505
:100033003626160676665646B7A79787F7E7D7C7D5
:100043004858687808182838C9D9E9F98999A9B9A5
:100053005A4A7A6A1A0A3A2ADBCBFBEB9B8BBBAB75
:100063006C7C4C5C2C3C0C1CEDFDCDDDADBD8D9D45
:100073007E6E5E4E3E2E1E0EFFEFDFCFBFAF9F8F15
:100083009181B1A1D1C1F1E11000302050407060E5
:100093008393A3B3C3D3E3F30212223242526272B5
:1000A300B5A59585F5E5D5C5342414047464544485
:1000B300A7B78797E7F7C7D7263606166676465655
:1000C300D9C9F9E99989B9A9584878681808382825
:1000D300CBDBEBFB8B9BABBB4A5A6A7A0A1A2A3AF5
:1000E300FDEDDDCDBDAD9D8D7C6C5C4C3C2C1C0CC5
:1000F300EFFFCFDFAFBF8F9F6E7E4E5E2E3E0E1E95
:100103000021426384A5C6E708294A6B8CADCEEF74
:1001130031107352B594F7D639187B5ABD9CFFDE64
:1001230062432001E6C7A4856A4B2809EECFAC8D54
:1001330053721130D7F695B45B7A1938DFFE9DBC44
:10014300C4E586A740610223CCED8EAF48690A2B34
:10015300F5D4B79671503312FDDCBF9E79583B1A24
:10016300A687E4C522036041AE8FECCD2A0B684914
:1001730097B6D5F4133251709FBEDDFC1B3A597804
:1001830088A9CAEB0C2D4E6F80A1C2E304254667F4
:10019300B998FBDA3D1C7F5EB190F3D235147756E4
:1001A300EACBA8896E4F2C0DE2C3A08166472405D4
:1001B300DBFA99B85F7E1D3CD3F291B057761534C4
:1001C3004C6D0E2FC8E98AAB44650627C0E182A3B4
:1001D3007D5C3F1EF9D8BB9A75543716F1D0B392A4
:1001E3002E0F6C4DAA8BE8C926076445A283E0C194
:1001F3001F3E5D7C9BBAD9F81736557493B2D1F084
:10061D00E4F535F536ED601E1202F96535FF9000F3
:10062D0003936536F535EF90010393F53674012983
:0A063D00F9E43AFADDE2AE35AF361B
:010647002290
:10044700020710E493A3F8E493A34003F68001F2B4
:1004570008DFF48029E493A3F85407240CC8C333B6
:10046700C4540F4420C8834004F456800146F6DF85
:10047700E4800B010204081020408090070CE47E02
:10048700019360BCA3FF543F30E509541FFEE4937A
:10049700A360010ECF54C025E060A840B8E493A341
:1004A700FAE493A3F8E493A3C8C582C8CAC583CA6C
:1004B700F0A3C8C582C8CAC583CADFE9DEE780BE24
:01070F0000E9
:10020300E709F608DFFA8046E709F208DFFA803EDD
:1002130088828C83E709F0A3DFFA8032E309F608CA
:10022300DFFA8078E309F208DFFA807088828C8332
:10023300E309F0A3DFFA806489828A83E0A3F608E6
:10024300DFFA805889828A83E0A3F208DFFA804CC0
:1002530080D280FA80C680D4806980F28033801097
:1002630080A680EA809A80A880DA80E280CA803300
:1002730089828A83ECFAE493A3C8C582C8CCC58378
:10028300CCF0A3C8C582C8CCC583CCDFE9DEE78048
:100293000D89828A83E493A3F608DFF9ECFAA9F0C7
:1002A300EDFB2289828A83ECFAE0A3C8C582C8CC1D
:1002B300C583CCF0A3C8C582C8CCC583CCDFEADE36
:1002C300E880DB89828A83E493A3F208DFF980CC98
:1002D30088F0EF60010E4E60C388F0ED2402B40491
:1002E3000050B9F582EB2402B4040050AF23234538
:0602F30082239002537308
:1002F900BB010689828A83E0225002E722BBFE0203
:09030900E32289828A83E4932235
:10031200BB010CE58229F582E5833AF583E02250A0
:1003220006E92582F8E622BBFE06E92582F8E222EA
:0D033200E58229F582E5833AF583E4932204
:10033F00BB010FF8E58229F582E5833AF583E028C2
:10034F00F0225009C58229F8E58226F622BBFE0964
:10035F00C58229F8E22582F222F8EA2583F583E99E
:03036F00932822AE
:10037200F8BB010DE58229F582E5833AF583E8F0C1
:10038200225006E92582C8F622BBFE05E92582C86D
:02039200F22255
:060394008A838982E473F4
:00000001FF
