:030000000204A94E
:0C04A900787FE4F6D8FD7581600204F055
:080A5300070B0D0E70B0D0E09E
:090A3B00C104C105035D030000C4
:10096900759850E4F587758920AF608F8B8F8DD28C
:0B0979008E759A5085609C758E1022D0
:10092B001209E61209697B007A00795D7D011209D3
:10093B000AC2037FFA1209D012098412063F80FB08
:10063F0020040312082B30045E80477B007A007978
:10064F002112088192005049E521604524FC702F4A
:10065F007B007A007921AD23AF221203D8401175A8
:10066F0021047523FF7B007A0079217D0312090A8B
:10067F0030040C7B007A007921C2027D05800D3099
:10068F00040F7B007A00795DC2027D031209B880E6
:07069F00AA200003120A2E3D
:0106A6002231
:1006F1001205BBAD07E5A0B40FFBEDF460337B0041
:100701007A0079097F011203D84016750904750A28
:1007110001750BFF7B007A0079097D0312090A8FAD
:10072100087B007A007909C202AD081209B81209E2
:010731008443
:0107320022A4
:1008E8007B017A00790075570075580AD2027D8815
:1008F8007C1312076EAD077B017A007900C20202F1
:0209080009B82C
:06087B007B007A00793FCA
:060881008B438A44894507
:1008870075570075580AC2027D147C0012076EADB9
:0A08970007AB43AA44A9450207334A
:0D0A2E00C2037FF61209D0120984C204220F
:10082B00200424C2037FF01209D012087B9204200B
:10083B000415120A2EC2037FF01209D012087B9204
:07084B0004200403120A2E31
:010852002283
:100A1E008F4CD2037F011209D0D203AF4C0209D002
:0808A100AB3CAA3DA93EAD36B7
:1008A9008B3F8A4089418D42D203AF421209D0ABB6
:0C08B9003FAA40A941D202AD420209B89A
:0F06A700754F00755000755100AB49AA4AA94B19
:0606B6008B4C8A4D894EB9
:1006BC00E924FFF9EA34FFFA755700755804D202A1
:1006CC007D647C0012076EAD071DE5504551454F0A
:1006DC00600AAB4FAA50A951ED12033FAB4CAA4D87
:0506EC00A94E020733D6
:1009FA00439A087FF6120A1E7F047E00120988C2F3
:020A0A000522C3
:1008C5008F488B498A4A894B7FF5120A1E1206A763
:1008D500920520050D1209FAAF48120A1E1206A745
:0308E50092052257
:020535008F3FF6
:10053700754500754600754741439A083005031213
:1005470009FAAF3F120A1E754F007550007551002A
:10055700AB45AA46A9471206B6920520050BAB453F
:10056700AA46A947AF3F1208C530053EAB45AA4684
:10057700A9471202F9B4010C900001120312B53F0A
:1005870003D38001C39205200520AF3F1208C5ABF6
:1005970045AA46A9471202F9B4010C9000011203BB
:1005A70012B53F03D38001C392052005030209FA60
:0305B700539AF75D
:0105BA00221E
:0A03D8008F318D328B338A34893562
:1003E200753C00753D00753E38120A2EAF31120A77
:1003F2001EAF31120535300572AB3CAA3DA93E74E1
:100402001112033FAB3CAA3DA93E900001E5321216
:1004120003517D0212090A8F36AB3CAA3DA93EC2A6
:1004220002AD361209B81208A1754F007550007559
:100432005136AB33AA34A9351206B69201401712CF
:1004420008A1754F00755000755136AB33AA34A917
:10045200351206B69201E536600CAB33AA34A935E3
:10046200C202FD1209B81209FA8025AB3CAA3DA9C5
:100472003EE412033FAB3CAA3DA93E7D0112090AAC
:10048200AD07AB3CAA3DA93EC2021209B8120984CB
:1004920020010EAB33AA34A935900001E5321203D4
:0604A2005112082BA2011B
:0104A8002231
:040984007F0A7E0068
:10098800EF4E6011EF1F70011E7D0BED60F27CF8D9
:05099800DCFE1D80F6ED
:01099D002237
:1005BB0078137C007D007BFF7A0A79537E007F04E1
:1005CB001202D378177C007D007BFF7A0A79577E65
:1005DB00007F041202D375A00FE5A0640F604FAB30
:1005EB00A07F057E00120988EB65A0704175A0F015
:1005FB00E5A064F06038AAA07F057E00120988EAA6
:10060B0065A0702A7F0374132FF8E6B50302AB07BE
:10061B0074172FF8E6B50206EF25E025E0FA1FC3A5
:10062B00EF6480948050DF75A00FEB4AFF2275A01A
:03063B000F7FFF2F
:01063E002299
:1007A2008B1B8A1C891D8C1E8D1FAB1BAA1CA91DAD
:1007B2001202F9601A051DE51D7002051C14F912DA
:1007C20002F9FF120A5BAF1FAE1E12098880DB22FC
:1009E6007F38120A487F0E120A487F06120A487F8D
:0409F60001020A48A8
:1000030000102030405060708191A1B1C1D1E1F165
:1000130012023222524272629383B3A3D3C3F3E335
:100023002434041464744454A5B58595E5F5C5D505
:100033003626160676665646B7A79787F7E7D7C7D5
:100043004858687808182838C9D9E9F98999A9B9A5
:100053005A4A7A6A1A0A3A2ADBCBFBEB9B8BBBAB75
:100063006C7C4C5C2C3C0C1CEDFDCDDDADBD8D9D45
:100073007E6E5E4E3E2E1E0EFFEFDFCFBFAF9F8F15
:100083009181B1A1D1C1F1E11000302050407060E5
:100093008393A3B3C3D3E3F30212223242526272B5
:1000A300B5A59585F5E5D5C5342414047464544485
:1000B300A7B78797E7F7C7D7263606166676465655
:1000C300D9C9F9E99989B9A9584878681808382825
:1000D300CBDBEBFB8B9BABBB4A5A6A7A0A1A2A3AF5
:1000E300FDEDDDCDBDAD9D8D7C6C5C4C3C2C1C0CC5
:1000F300EFFFCFDFAFBF8F9F6E7E4E5E2E3E0E1E95
:100103000021426384A5C6E708294A6B8CADCEEF74
:1001130031107352B594F7D639187B5ABD9CFFDE64
:1001230062432001E6C7A4856A4B2809EECFAC8D54
:1001330053721130D7F695B45B7A1938DFFE9DBC44
:10014300C4E586A740610223CCED8EAF48690A2B34
:10015300F5D4B79671503312FDDCBF9E79583B1A24
:10016300A687E4C522036041AE8FECCD2A0B684914
:1001730097B6D5F4133251709FBEDDFC1B3A597804
:1001830088A9CAEB0C2D4E6F80A1C2E304254667F4
:10019300B998FBDA3D1C7F5EB190F3D235147756E4
:1001A300EACBA8896E4F2C0DE2C3A08166472405D4
:1001B300DBFA99B85F7E1D3CD3F291B057761534C4
:1001C3004C6D0E2FC8E98AAB44650627C0E182A3B4
:1001D3007D5C3F1EF9D8BB9A75543716F1D0B392A4
:1001E3002E0F6C4DAA8BE8C926076445A283E0C194
:1001F3001F3E5D7C9BBAD9F81736557493B2D1F084
:10080000E4F556F557ED601E1202F96556FF9000AB
:1008100003936557F556EF90010393F5577401293B
:0A082000F9E43AFADDE2AE56AF57F4
:01082A0022AB
:10090A008B3F8A408941AC05120800AB3FAA40A937
:10091A00418C82758300EE8FF01203ABEC2402FF48
:01092A0022AA
:100733008B528A5389548D55E555C394025002C395
:100743002215551555AB52AA53A954AD551208009D
:10075300AB52AA53A954855582758300120373B50E
:0B0763000707EEB5F003D38001C322AE
:030A44000160FD51
:10099E007F017580FFC2B4C2B5D2B6D2B4AE80EEBE
:0909AE0030E7040FEF70EEC2B453
:0109B700221D
:0B0A4800EF6007C200F521120A0C222B
:070A5B00D2008F21020A0CFA
:100A0C0012099EC2B6A20092B5852180D2B400C252
:020A1C00B42202
:1009D00030030B8F9BE59A30E1FB539AFD228F99F0
:0609E0003099FDC29922CE
:1009B800ED60141202F9FFA20292031209D0740129
:0809C80029F9E43AFADDEC2202
:10094B00309802800EEF60141F7E0BEE60F77D7CFB
:0D095B00309804C298D322DDF71E80EFC350
:01096800226C
:10085300E59A30E0028015EF4E601BEF1F70011E1A
:100863007D19ED60F27C2BE59A30E005539AFED3B7
:0708730022DCF41D80ECC340
:01087A00225B
:0407D2008C5A8D5B55
:1007D600300319AF5BAE5A120853501C859B5CAFB1
:1007E6005BAE5A1208535010E59B8009AF5B1209A5
:0907F6004B5005E59912033FC3C5
:0107FF0022D7
:06076E008B528A538954EE
:10077400E4F559A20292031207D2501F74012554C2
:10078400F554E43553F5530559AB52FAA954A20272
:0D0794009203AD58AC571207D240E1AF59A7
:0107A1002235
:1004B50002092BE493A3F8E493A34003F68001F229
:1004C50008DFF48029E493A3F85407240CC8C33348
:1004D500C4540F4420C8834004F456800146F6DF17
:1004E500E4800B0102040810204080900A3BE47E62
:1004F500019360BCA3FF543F30E509541FFEE4930C
:10050500A360010ECF54C025E060A840B8E493A3D2
:10051500FAE493A3F8E493A3C8C582C8CAC583CAFD
:10052500F0A3C8C582C8CAC583CADFE9DEE780BEB5
:010A470000AE
:10020300E709F608DFFA8046E709F208DFFA803EDD
:1002130088828C83E709F0A3DFFA8032E309F608CA
:10022300DFFA8078E309F208DFFA807088828C8332
:10023300E309F0A3DFFA806489828A83E0A3F608E6
:10024300DFFA805889828A83E0A3F208DFFA804CC0
:1002530080D280FA80C680D4806980F28033801097
:1002630080A680EA809A80A880DA80E280CA803300
:1002730089828A83ECFAE493A3C8C582C8CCC58378
:10028300CCF0A3C8C582C8CCC583CCDFE9DEE78048
:100293000D89828A83E493A3F608DFF9ECFAA9F0C7
:1002A300EDFB2289828A83ECFAE0A3C8C582C8CC1D
:1002B300C583CCF0A3C8C582C8CCC583CCDFEADE36
:1002C300E880DB89828A83E493A3F208DFF980CC98
:1002D30088F0EF60010E4E60C388F0ED2402B40491
:1002E3000050B9F582EB2402B4040050AF23234538
:0602F30082239002537308
:1002F900BB010689828A83E0225002E722BBFE0203
:09030900E32289828A83E4932235
:10031200BB010CE58229F582E5833AF583E02250A0
:1003220006E92582F8E622BBFE06E92582F8E222EA
:0D033200E58229F582E5833AF583E4932204
:10033F00BB010689828A83F0225002F722BBFE019D
:02034F00F32297
:10035100F8BB010DE58229F582E5833AF583E8F0E2
:10036100225006E92582C8F622BBFE05E92582C88E
:02037100F22276
:10037300BB0110E58229F582E5833AF583E0F5F0C8
:10038300A3E0225009E92582F886F008E622BBFEA5
:100393000AE92582F8E2F5F008E222E5832AF583EB
:0803A300E993F5F0A3E99322B0
:1003AB00F8BB0111E58229F582E5833AF583E8F084
:1003BB00E5F0A3F0225009E92582C8F608A6F02241
:0D03CB00BBFE09E92582C8F2E5F008F22228
:00000001FF
