:030000000204AC4B
:0C04AC00787FE4F6D8FD7581650204F34A
:08085200070B0D0E70B0D0E0A1
:02084900C100EC
:1007E400EF1FAA0670011E4A600A7D7BAC051DEC52
:0407F40060EE80F83B
:0107F80022DE
:1007F9007598D0E4F587758920AF218F8B8F8DD2BD
:020809008E223D
:06077600AB5AAA5BA95C6E
:06077C008B5D8A5E895FBF
:100782007564047D28120706AD07AB5DAA5EA95FFA
:030792000206DB81
:10081D00D29B7FF612085A7F047E001207E4C200B5
:01082D0022A8
:080685007B007A007955AF54A7
:10068D008F598B5A8A5B895C7FF512085A1207764F
:10069D00920020000D12081DAF5912085A1207764C
:0306AD0092002296
:020630008F54E5
:10063200D29B30000312081DAF5412085A7B007A75
:1006420000795512077C92002000031206853000C3
:1006520026E555B40108E556B55403D38001C3928B
:1006620000200013120685E555B40108E556B5547D
:1006720003D38001C3920020000312081DA200B31D
:02068200929B49
:010684002253
:0805BC008D508B518A528953C6
:1005C400120630300052AB51AA52A95374111201D1
:1005D40072AB51AA52A953900001E5501201847DD7
:1005E40002120755AD07AB51AA52A953755801120F
:1005F4000795AB51AA52A95312077C92024019AB3A
:1006040051AA52A9537558017D04120795AB51AAFA
:1006140052A95312077C920220020EAB51AA52A98E
:0B06240053900001E550120184A20277
:01062F0022A8
:10072E001207F91205388F4FE590B40FFBE54FF421
:10073E0060F1E54F1313543F04FF7B007A007945B7
:07074E00AD4F1205BC80DC79
:1005380078507C007D007BFF7A0879527E007F042A
:100548001200D378547C007D007BFF7A0879567EB0
:10055800007F041200D375900FE590640F604FA9D7
:10056800907F057E001207E4E9659070417590F070
:10057800E59064F06038AB907F057E001207E4EBED
:100588006590702A7F0374502FF8E6B50102A90719
:1005980074542FF8E6B50306EF25E025E0FB1FC3EA
:1005A800EF6480948050DF75900FE94BFF227590BF
:0305B8000F7FFFB3
:0105BB00221D
:10020B0000102030405060708191A1B1C1D1E1F15B
:10021B0012023222524272629383B3A3D3C3F3E32B
:10022B002434041464744454A5B58595E5F5C5D5FB
:10023B003626160676665646B7A79787F7E7D7C7CB
:10024B004858687808182838C9D9E9F98999A9B99B
:10025B005A4A7A6A1A0A3A2ADBCBFBEB9B8BBBAB6B
:10026B006C7C4C5C2C3C0C1CEDFDCDDDADBD8D9D3B
:10027B007E6E5E4E3E2E1E0EFFEFDFCFBFAF9F8F0B
:10028B009181B1A1D1C1F1E11000302050407060DB
:10029B008393A3B3C3D3E3F30212223242526272AB
:1002AB00B5A59585F5E5D5C534241404746454447B
:1002BB00A7B78797E7F7C7D726360616667646564B
:1002CB00D9C9F9E99989B9A958487868180838281B
:1002DB00CBDBEBFB8B9BABBB4A5A6A7A0A1A2A3AEB
:1002EB00FDEDDDCDBDAD9D8D7C6C5C4C3C2C1C0CBB
:1002FB00EFFFCFDFAFBF8F9F6E7E4E5E2E3E0E1E8B
:10030B000021426384A5C6E708294A6B8CADCEEF6A
:10031B0031107352B594F7D639187B5ABD9CFFDE5A
:10032B0062432001E6C7A4856A4B2809EECFAC8D4A
:10033B0053721130D7F695B45B7A1938DFFE9DBC3A
:10034B00C4E586A740610223CCED8EAF48690A2B2A
:10035B00F5D4B79671503312FDDCBF9E79583B1A1A
:10036B00A687E4C522036041AE8FECCD2A0B68490A
:10037B0097B6D5F4133251709FBEDDFC1B3A5978FA
:10038B0088A9CAEB0C2D4E6F80A1C2E304254667EA
:10039B00B998FBDA3D1C7F5EB190F3D235147756DA
:1003AB00EACBA8896E4F2C0DE2C3A08166472405CA
:1003BB00DBFA99B85F7E1D3CD3F291B057761534BA
:1003CB004C6D0E2FC8E98AAB44650627C0E182A3AA
:1003DB007D5C3F1EF9D8BB9A75543716F1D0B3929A
:1003EB002E0F6C4DAA8BE8C926076445A283E0C18A
:1003FB001F3E5D7C9BBAD9F81736557493B2D1F07A
:1006B000E4F564F565ED601E1200F96564FF9002D3
:1006C0000B936565F564EF90030B93F56574012951
:0A06D000F9E43AFADDE2AE64AF652A
:0106DA0022FD
:100755008B548A558956AC051206B0AB54AA55A9D7
:10076500568C82758300EE8FF01201DEEC2402FFB9
:010775002261
:1006DB008D638B608A61896215631563AD63120646
:1006EB00B0AB60AA61A9628563827583001201A613
:0B06FB00B50706EEB5F002D322C322C3
:06084B000121FD01220065
:1007B0007F017580FFC2B4C2B5D2B6D2B4AE80EEAE
:0907C00030E7040FEF70EEC2B443
:0107C900220D
:0B083E00EF6007C201F50F12080B224B
:07086200D2018F0F02080B09
:10080B001207B0C2B6A20192B5850F80D2B400C256
:02081B00B42205
:08085A008F993099FDC299222B
:10079500ED60171200F9FF12085AAF58EF6002DF3B
:0A07A500FE740129F9E43AFADDE9D7
:0107AF002227
:1007CA00309802800CEF60101F7E7CEE60F7309844
:0907DA0004C298D3221E80F3C36F
:0107E30022F3
:10082E00AF051207CA5007E599120172D322C322EF
:060706008B608A6189622C
:10070C00E4FC12082E501874012562F562E4356180
:10071C00F5610CAB60FAA962AD6412082E40E8AF2B
:01072C0004C8
:01072D0022A9
:06040B008B0A8A0B890C2C
:10041100850D82758300E4120184E50D70030204E9
:10042100ABF50EED64026011ED6408600CED640A39
:100431006007ED641060027D0AEF800BE50D60211D
:10044100EF8DF084FF601A8DF084E5F02430AB0A63
:10045100AA0BA90C150D850D8275830012018480EC
:10046100DBED6410702BAF0E150EEFD3950D40210F
:10047100AB0AAA0BA90C850E82758300120112D357
:10048100943940E2850E82758300740712013F8022
:10049100D5E50D6015AB0AAA0BA90C150D850D82CA
:0A04A100758300742012018480E7C7
:0104AB00222E
:1004B80002072EE493A3F8E493A34003F68001F225
:1004C80008DFF48029E493A3F85407240CC8C33345
:1004D800C4540F4420C8834004F456800146F6DF14
:1004E800E4800B0102040810204080900849E47E53
:1004F800019360BCA3FF543F30E509541FFEE49309
:10050800A360010ECF54C025E060A840B8E493A3CF
:10051800FAE493A3F8E493A3C8C582C8CAC583CAFA
:10052800F0A3C8C582C8CAC583CADFE9DEE780BEB2
:0108510000A6
:10000300E709F608DFFA8046E709F208DFFA803EDF
:1000130088828C83E709F0A3DFFA8032E309F608CC
:10002300DFFA8078E309F208DFFA807088828C8334
:10003300E309F0A3DFFA806489828A83E0A3F608E8
:10004300DFFA805889828A83E0A3F208DFFA804CC2
:1000530080D280FA80C680D4806980F28033801099
:1000630080A680EA809A80A880DA80E280CA803302
:1000730089828A83ECFAE493A3C8C582C8CCC5837A
:10008300CCF0A3C8C582C8CCC583CCDFE9DEE7804A
:100093000D89828A83E493A3F608DFF9ECFAA9F0C9
:1000A300EDFB2289828A83ECFAE0A3C8C582C8CC1F
:1000B300C583CCF0A3C8C582C8CCC583CCDFEADE38
:1000C300E880DB89828A83E493A3F208DFF980CC9A
:1000D30088F0EF60010E4E60C388F0ED2402B40493
:1000E3000050B9F582EB2402B4040050AF2323453A
:0600F3008223900053730C
:1000F900BB010689828A83E0225002E722BBFE0205
:09010900E32289828A83E4932237
:10011200BB010CE58229F582E5833AF583E02250A2
:1001220006E92582F8E622BBFE06E92582F8E222EC
:0D013200E58229F582E5833AF583E4932206
:10013F00BB010FF8E58229F582E5833AF583E028C4
:10014F00F0225009C58229F8E58226F622BBFE0966
:10015F00C58229F8E22582F222F8EA2583F583E9A0
:03016F00932822B0
:10017200BB010689828A83F0225002F722BBFE016C
:02018200F32266
:10018400F8BB010DE58229F582E5833AF583E8F0B1
:10019400225006E92582C8F622BBFE05E92582C85D
:0201A400F22245
:1001A600BB0110E58229F582E5833AF583E0F5F097
:1001B600A3E0225009E92582F886F008E622BBFE74
:1001C6000AE92582F8E2F5F008E222E5832AF583BA
:0801D600E993F5F0A3E993227F
:1001DE00F8BB0111E58229F582E5833AF583E8F053
:1001EE00E5F0A3F0225009E92582C8F608A6F02210
:0D01FE00BBFE09E92582C8F2E5F008F222F7
:00000001FF
