:0300000002052CCA
:0C052C00787FE4F6D8FD75815402057359
:08097600070B0D0E70B0D0E07C
:04096E00C104C105FA
:10089F00759850E4F587758920AF158F8B8F8DD2A2
:0B08AF008E759A5085159C758E1022E6
:060838007B007A00793C10
:06083E008B408A41894253
:1008440075500AC2027D147C001206D9AD07AB4074
:07085400AA41A94202079727
:0D095600C2037FF61209061208BAC204227D
:1007C200200424C2037FF012090612083892042082
:1007D2000415120956C2037FF01209061208389254
:0707E2000420040312095674
:0107E90022ED
:0F069B00754800754900754A00AB42AA43A9444F
:0606AA008B458A468947DA
:1006B000755004D2027D647C001206D9AD07E5496D
:1006C000454A4548600AAB48AA49A94AED120312B7
:0906D000AB45AA46A947020797B1
:10091C00439A08D2037FF61209067F047E00120860
:04092C00BEC2052220
:08073D007B007A00793DAF3C1E
:100745008F418B428A438944D2037FF512090612F1
:10075500069B920520050F12091CD203AF41120911
:070765000612069B9205221B
:02063C008F3CF1
:10063E00439A0830050312091CD203AF3C12090677
:10064E00754800754900754A007B007A00793D12A5
:10065E0006AA920520050312073D300526E53DB496
:10066E000108E53EB53C03D38001C3920520051376
:10067E0012073DE53DB40108E53EB53C03D38001CC
:0C068E00C3920520050302091C539AF7D3
:01069A00223D
:0A03AB008F328D338B348A3589368A
:1003B500120956C203AF321209061208BAAF321239
:1003C500063C3005797538118533397B007A00791B
:1003D500387D0212087E8F377B007A007938C20299
:1003E500AD371208EE1208BA7B007A007938D202CE
:1003F500AD371208EE754800754900754A37AB34BC
:10040500AA35A9361206AA920140217B007A007905
:1004150038D202AD371208EE754800754900754AA5
:1004250037AB34AA35A9361206AA920112091CE582
:10043500376028AB34AA35A936C202FD8017E4F52A
:1004450038FB7A0079387D0112087EAD077B007A8A
:10045500007938C2021208EE1208BA20010EAB3438
:10046500AA35A936900001E5331203241207C2A26A
:010475000185
:010476002263
:1004770012089FC2037FFA1209061208BA20040362
:100487001207C23004F77521037B007A0079217DBA
:100497000112087EAD078D317B007A007921C202F7
:1004A7001208EE7B007A00792112083E920050690B
:1004B700E521606524FC70387B007A007921AD2343
:1004C700AF221203AB40137521047523FF7B007A1B
:1004D7000079217D0312087E8F313004137B007A67
:1004E700007921C202AD311208EE7F0A7E00802416
:1004F7003004267521037B007A0079217D011208DB
:100507007EAD078D317B007A007921C2021208EE99
:100517007FE87E031208BE808A200003020484124B
:050527000956020484E6
:0408BA007F0A7E0033
:1008BE00EF4E6011EF1F70011E7D0BED60F27CF8A4
:0508CE00DCFE1D80F6B8
:0108D3002202
:1005B80078087C007D007BFF7A0979767E007F04CD
:1005C8001202D3780C7C007D007BFF7A09797A7E51
:1005D800007F041202D375900FE590640F604FAB53
:1005E800907F057E001208BEEB659070417590F013
:1005F800E59064F06038AA907F057E001208BEEA94
:100608006590702A7F0374082FF8E6B50302AB07DC
:10061800740C2FF8E6B50206EF25E025E0FA1FC3B3
:10062800EF6480948050DF75900FEB4AFF2275903D
:030638000F7FFF32
:01063B00229C
:10070D008B108A1189128C138D14AB10AA11A9129A
:10071D001202F9601A0512E5127002051114F91290
:10072D0002F9FF12097EAF14AE131208BE80DB2250
:100930007F381209637F0E1209637F061209637FF5
:040940000102096344
:1000030000102030405060708191A1B1C1D1E1F165
:1000130012023222524272629383B3A3D3C3F3E335
:100023002434041464744454A5B58595E5F5C5D505
:100033003626160676665646B7A79787F7E7D7C7D5
:100043004858687808182838C9D9E9F98999A9B9A5
:100053005A4A7A6A1A0A3A2ADBCBFBEB9B8BBBAB75
:100063006C7C4C5C2C3C0C1CEDFDCDDDADBD8D9D45
:100073007E6E5E4E3E2E1E0EFFEFDFCFBFAF9F8F15
:100083009181B1A1D1C1F1E11000302050407060E5
:100093008393A3B3C3D3E3F30212223242526272B5
:1000A300B5A59585F5E5D5C5342414047464544485
:1000B300A7B78797E7F7C7D7263606166676465655
:1000C300D9C9F9E99989B9A9584878681808382825
:1000D300CBDBEBFB8B9BABBB4A5A6A7A0A1A2A3AF5
:1000E300FDEDDDCDBDAD9D8D7C6C5C4C3C2C1C0CC5
:1000F300EFFFCFDFAFBF8F9F6E7E4E5E2E3E0E1E95
:100103000021426384A5C6E708294A6B8CADCEEF74
:1001130031107352B594F7D639187B5ABD9CFFDE64
:1001230062432001E6C7A4856A4B2809EECFAC8D54
:1001330053721130D7F695B45B7A1938DFFE9DBC44
:10014300C4E586A740610223CCED8EAF48690A2B34
:10015300F5D4B79671503312FDDCBF9E79583B1A24
:10016300A687E4C522036041AE8FECCD2A0B684914
:1001730097B6D5F4133251709FBEDDFC1B3A597804
:1001830088A9CAEB0C2D4E6F80A1C2E304254667F4
:10019300B998FBDA3D1C7F5EB190F3D235147756E4
:1001A300EACBA8896E4F2C0DE2C3A08166472405D4
:1001B300DBFA99B85F7E1D3CD3F291B057761534C4
:1001C3004C6D0E2FC8E98AAB44650627C0E182A3B4
:1001D3007D5C3F1EF9D8BB9A75543716F1D0B392A4
:1001E3002E0F6C4DAA8BE8C926076445A283E0C194
:1001F3001F3E5D7C9BBAD9F81736557493B2D1F084
:10076C00E4F54FF550ED601E1202F9654FFF900055
:10077C0003936550F54FEF90010393F550740129E5
:0A078C00F9E43AFADDE2AE4FAF5097
:010796002240
:10087E008B3C8A3D893EAC0512076CAB3CAA3DA968
:10088E003E8C82758300EE8FF012037EEC2402FF05
:01089E002237
:100797008D4E8B4B8A4C894D154E154EAD4E12071B
:1007A7006CAB4BAA4CA94D854E827583001203464C
:0B07B700B50706EEB5F002D322C32206
:030972000115FD6F
:1008D4007F017580FFC2B4C2B5D2B6D2B4AE80EE89
:0908E40030E7040FEF70EEC2B41E
:0108ED0022E8
:0B096300EF6007C206F51612094422DF
:07097E00D2068F16020944A6
:100944001208D4C2B6A20692B5851680D2B400C2EB
:02095400B422CB
:1009060030030B8F9BE59A30E1FB539AFD228F99BA
:060916003099FDC2992298
:1008EE00ED60141202F9FFA20292031209067401BE
:0808FE0029F9E43AFADDEC22CD
:10085B003098028013EF4E6018EF1F70011E7D0B56
:10086B00ED60F27C7C309804C298D322DCF71D80BB
:02087B00EFC3C9
:01087D002258
:1007EA00E59A30E0028015EF4E601BEF1F70011E84
:1007FA007D19ED60F27C2BE59A30E005539AFED321
:07080A0022DCF41D80ECC3A9
:0108110022C4
:100812008C538D5430030DAF54AE531207EA50146B
:10082200E59B800BAF54AE5312085B5007E599125B
:060832000312D322C322D1
:0606D9008B4B8A4C894D99
:1006DF00E4F552A2029203120812501F7401254D25
:1006EF00F54DE4354CF54C0552AB4BFAA94DA20232
:0D06FF009203AD51AC5012081240E1AF5211
:01070C0022CA
:10053800020477E493A3F8E493A34003F68001F25E
:1005480008DFF48029E493A3F85407240CC8C333C4
:10055800C4540F4420C8834004F456800146F6DF93
:10056800E4800B010204081020408090096EE47EAC
:10057800019360BCA3FF543F30E509541FFEE49388
:10058800A360010ECF54C025E060A840B8E493A34F
:10059800FAE493A3F8E493A3C8C582C8CAC583CA7A
:1005A800F0A3C8C582C8CAC583CADFE9DEE780BE32
:010975000081
:10020300E709F608DFFA8046E709F208DFFA803EDD
:1002130088828C83E709F0A3DFFA8032E309F608CA
:10022300DFFA8078E309F208DFFA807088828C8332
:10023300E309F0A3DFFA806489828A83E0A3F608E6
:10024300DFFA805889828A83E0A3F208DFFA804CC0
:1002530080D280FA80C680D4806980F28033801097
:1002630080A680EA809A80A880DA80E280CA803300
:1002730089828A83ECFAE493A3C8C582C8CCC58378
:10028300CCF0A3C8C582C8CCC583CCDFE9DEE78048
:100293000D89828A83E493A3F608DFF9ECFAA9F0C7
:1002A300EDFB2289828A83ECFAE0A3C8C582C8CC1D
:1002B300C583CCF0A3C8C582C8CCC583CCDFEADE36
:1002C300E880DB89828A83E493A3F208DFF980CC98
:1002D30088F0EF60010E4E60C388F0ED2402B40491
:1002E3000050B9F582EB2402B4040050AF23234538
:0602F30082239002537308
:1002F900BB010689828A83E0225002E722BBFE0203
:09030900E32289828A83E4932235
:10031200BB010689828A83F0225002F722BBFE01CA
:02032200F322C4
:10032400F8BB010DE58229F582E5833AF583E8F00F
:10033400225006E92582C8F622BBFE05E92582C8BB
:02034400F222A3
:10034600BB0110E58229F582E5833AF583E0F5F0F5
:10035600A3E0225009E92582F886F008E622BBFED2
:100366000AE92582F8E2F5F008E222E5832AF58318
:08037600E993F5F0A3E99322DD
:10037E00F8BB0111E58229F582E5833AF583E8F0B1
:10038E00E5F0A3F0225009E92582C8F608A6F0226E
:0D039E00BBFE09E92582C8F2E5F008F22255
:00000001FF
