:0300000002048C6B
:0C048C00787FE4F6D8FD7581390204D3B6
:04001E0002010000DB
:100611007F381207E47F0C1207E47F061207E47F9C
:10062100011207E47F861207E4E4FFC3940A400441
:100631007E3780027E30EE2FFF1207F77F02EFC375
:10064100940A40047E3780027E30EE2FFF1207F7B6
:050651007F3A0207F7EB
:0100220022BB
:1006C8008F30E530D39409500B7F891207E4E53069
:1006D80024308010E530D394237F89500D1207E42D
:1006E800E5302437FF1207F7D3221207E47F2112DF
:0406F80007F7C3221B
:1007A500759850E4F587758920AF088F8B8F8DD2AA
:0207B5008E2292
:0B07D9001206111207A512002280FB7F
:030023000203FBDA
:1003FB00C0E0C0F0C083C082C0D075D000C000C0C8
:0D040B0001C002C003C004C005C006C00748
:10041800C2AC309852309F20309A0D7B007A007918
:1004280023E4FD1207C98023753000753100753249
:10043800001205CB502E80217530007531007532C1
:10044800221205CB9201E522B4010B7B007A0079D8
:1004580023120584801130010B7B007A0079231266
:0904680005188003120727D2AC2D
:10047100D007D006D005D004D003D002D001D000DF
:0B048100D0D0D082D083D0F0D0E03289
:0605CB007B007A00792399
:0605D1008B2D8A2E892FFC
:1005D7007538047D281206918F33E5314532453051
:1005E700600BAB30AA31A932E533120362AB2DAAF7
:1005F7002EA92FAD33120656500EAB2DAA2EA92FBA
:0906070012031CB53302D322C317
:0106100022C7
:100584008B2D8A2E892F12031C24E1600A242960F2
:1005940033047032209D2FC29DAB2DAA2EA92F7437
:1005A40001120362AB2DAA2EA92FF5827583007464
:1005B4001F1203747D02120750AD07AB2DAA2EA99A
:0705C4002F020003D29D226B
:100518008B2D8A2E892F12031C24FD603E24F27035
:100528005A900001120335FF1206C850047F048058
:10053800027F05AB2DAA2EA92FEF120362AB2DAABD
:100548002EA92F9000011203359000021203749017
:100558000001741F1203747D038012AB2DAA2EA90B
:100568002FE4120362AB2DAA2EA92F7D011207508A
:0C057800AD07AB2DAA2EA92F1200032204
:10072700782D7C007D007BFF7A00791E7E007F0498
:100737001202F67B007A00792D7D03120750AD0770
:090747007B007A00792D0207C93C
:100771007F017580FFC292C290D291D292AE80EE7B
:0907810030E7040FEF70EEC292A4
:01078A00224C
:0B07E400EF6007C202F5311207B722D8
:0707F700D2028F310207B7A7
:1007B700120771C291A2029290853180D29200C233
:0207C70092227C
:0807EF008F993099FDC2992297
:10000300AE05AF061207EFEE601012031CFF1207D6
:0B001300EF740129F9E43AFADEF02254
:10078B00309802800CEF60101F7E7CEE60F7309883
:09079B0004C298D3221E80F3C3AE
:0107A4002232
:1007C900AF0512078B5007E599120362D322C322A2
:08069100AC058B348A35893673
:10069900E4F5391207C95024AB34AA35A936120733
:1006A900C9501974012536F536E43535F53505395E
:0E06B900AB34FAA936AD381207C940E7AF39A5
:0106C7002210
:0307FE000108FDF2
:1000260000102030405060708191A1B1C1D1E1F142
:1000360012023222524272629383B3A3D3C3F3E312
:100046002434041464744454A5B58595E5F5C5D5E2
:100056003626160676665646B7A79787F7E7D7C7B2
:100066004858687808182838C9D9E9F98999A9B982
:100076005A4A7A6A1A0A3A2ADBCBFBEB9B8BBBAB52
:100086006C7C4C5C2C3C0C1CEDFDCDDDADBD8D9D22
:100096007E6E5E4E3E2E1E0EFFEFDFCFBFAF9F8FF2
:1000A6009181B1A1D1C1F1E11000302050407060C2
:1000B6008393A3B3C3D3E3F3021222324252627292
:1000C600B5A59585F5E5D5C5342414047464544462
:1000D600A7B78797E7F7C7D7263606166676465632
:1000E600D9C9F9E99989B9A9584878681808382802
:1000F600CBDBEBFB8B9BABBB4A5A6A7A0A1A2A3AD2
:10010600FDEDDDCDBDAD9D8D7C6C5C4C3C2C1C0CA1
:10011600EFFFCFDFAFBF8F9F6E7E4E5E2E3E0E1E71
:100126000021426384A5C6E708294A6B8CADCEEF51
:1001360031107352B594F7D639187B5ABD9CFFDE41
:1001460062432001E6C7A4856A4B2809EECFAC8D31
:1001560053721130D7F695B45B7A1938DFFE9DBC21
:10016600C4E586A740610223CCED8EAF48690A2B11
:10017600F5D4B79671503312FDDCBF9E79583B1A01
:10018600A687E4C522036041AE8FECCD2A0B6849F1
:1001960097B6D5F4133251709FBEDDFC1B3A5978E1
:1001A60088A9CAEB0C2D4E6F80A1C2E304254667D1
:1001B600B998FBDA3D1C7F5EB190F3D235147756C1
:1001C600EACBA8896E4F2C0DE2C3A08166472405B1
:1001D600DBFA99B85F7E1D3CD3F291B057761534A1
:1001E6004C6D0E2FC8E98AAB44650627C0E182A391
:1001F6007D5C3F1EF9D8BB9A75543716F1D0B39281
:100206002E0F6C4DAA8BE8C926076445A283E0C170
:100216001F3E5D7C9BBAD9F81736557493B2D1F060
:1006FC00E4F538F539ED601E12031C6538FF9000E7
:10070C0026936539F538EF90012693F53974012954
:0A071C00F9E43AFADDE2AE38AF3935
:0107260022B0
:100750008B318A328933AC051206FCAB31AA32A93F
:10076000338C82758300EE8FF01203CEEC2402FFEF
:010770002266
:100656008B348A3589368D37E537C394025002C309
:100666002215371537AB34AA35A936AD371206FC35
:10067600AB34AA35A936853782758300120396B541
:0B0686000707EEB5F003D38001C3228C
:100498000207D9E493A3F8E493A34003F68001F29A
:1004A80008DFF48029E493A3F85407240CC8C33365
:1004B800C4540F4420C8834004F456800146F6DF34
:1004C800E4800B01020408102040809007FEE47EBF
:1004D800019360BCA3FF543F30E509541FFEE49329
:1004E800A360010ECF54C025E060A840B8E493A3F0
:1004F800FAE493A3F8E493A3C8C582C8CAC583CA1B
:10050800F0A3C8C582C8CAC583CADFE9DEE780BED2
:0108010000F6
:10022600E709F608DFFA8046E709F208DFFA803EBA
:1002360088828C83E709F0A3DFFA8032E309F608A7
:10024600DFFA8078E309F208DFFA807088828C830F
:10025600E309F0A3DFFA806489828A83E0A3F608C3
:10026600DFFA805889828A83E0A3F208DFFA804C9D
:1002760080D280FA80C680D4806980F28033801074
:1002860080A680EA809A80A880DA80E280CA8033DD
:1002960089828A83ECFAE493A3C8C582C8CCC58355
:1002A600CCF0A3C8C582C8CCC583CCDFE9DEE78025
:1002B6000D89828A83E493A3F608DFF9ECFAA9F0A4
:1002C600EDFB2289828A83ECFAE0A3C8C582C8CCFA
:1002D600C583CCF0A3C8C582C8CCC583CCDFEADE13
:1002E600E880DB89828A83E493A3F208DFF980CC75
:1002F60088F0EF60010E4E60C388F0ED2402B4046E
:100306000050B9F582EB2402B4040050AF23234514
:06031600822390027673C1
:10031C00BB010689828A83E0225002E722BBFE02DF
:09032C00E32289828A83E4932212
:10033500BB010CE58229F582E5833AF583E022507D
:1003450006E92582F8E622BBFE06E92582F8E222C7
:0D035500E58229F582E5833AF583E49322E1
:10036200BB010689828A83F0225002F722BBFE017A
:02037200F32274
:10037400F8BB010DE58229F582E5833AF583E8F0BF
:10038400225006E92582C8F622BBFE05E92582C86B
:02039400F22253
:10039600BB0110E58229F582E5833AF583E0F5F0A5
:1003A600A3E0225009E92582F886F008E622BBFE82
:1003B6000AE92582F8E2F5F008E222E5832AF583C8
:0803C600E993F5F0A3E993228D
:1003CE00F8BB0111E58229F582E5833AF583E8F061
:1003DE00E5F0A3F0225009E92582C8F608A6F0221E
:0D03EE00BBFE09E92582C8F2E5F008F22205
:00000001FF
