:03000000020356A2
:0C035600787FE4F6D8FD75815802039D05
:03059C00010B034D
:1003E2007F381205877F0C1205877F061205877FEB
:1003F200011205877F86120587E4FFC3940A400431
:100402007E3780027E30EE2FFF1205AE7F03EFC3F0
:10041200940A40047E3780027E30EE2FFF1205AE32
:050422007F3A0205AE67
:0A0592007F89120587AF990205AEBC
:1004A5008F50E550D394097F89500D120587E5508B
:1004B5002430FF1205AED3221205877F4E1205AEFA
:0204C500C32250
:05001E007F330205A67E
:10054F007598F0E4F587758920AF218F8B8F8DD249
:06055F008ED2AFD2AC22E7
:060536008B508A5189522E
:10053C007557047D2812047DAD07AB50AA51A95202
:03054C0002045254
:1004E8001203E212054F7508FF750905750A927522
:0A04F8000CFF750D00750E1E80FE4E
:03002300020226B0
:0D022600C0E0C0F0C083C082C0D075D01809
:10023300C2AC2098030202B9309A2BC29885994622
:10024300E54624FD600A240D6018047069209D664C
:10025300C29D7546017547037B007A0079467D028E
:100263008043D29D80507B007A0079461205365038
:1002730045E54624FD602324F2703BAF471204A5F5
:100283005004AF4780027FFF8F48754604754703CC
:100293007B007A0079467D03800B7546007B007AEC
:1002A3000079467D011204C7AD1F7B007A007946B1
:0802B300755400120003D2ACE7
:0B02BB00D0D0D082D083D0F0D0E03251
:100502007F017580FFC2A2C2A0D2A1D2A2AE80EEAC
:0905120030E7040FEF70EEC2A205
:01051B0022BD
:0B058700EF6007C201F551120565226C
:0705AE00D2018F5102056527
:10056500120502C2A1A20192A0855180D2A200C2A9
:02057500A222C0
:0805A6008F993099FDC29922E2
:10000300ED60171202C6FF1205A6AF54EF6002DFC0
:0A001300FE740129F9E43AFADDE970
:01001D0022C0
:10051C00309802800CEF60101F7E7CEE60F73098F4
:09052C0004C298D3221E80F3C31F
:0105350022A3
:10057700AF0512051C5007E5991202DFD322C322EB
:06047D008B538A548955DF
:10048300E4FC120577501874012555F555E43554ED
:10049300F5540CAB53FAA955AD5712057740E8AFA5
:0104A3000454
:0104A4002235
:06059F000121FD01220014
:1000260000102030405060708191A1B1C1D1E1F142
:1000360012023222524272629383B3A3D3C3F3E312
:100046002434041464744454A5B58595E5F5C5D5E2
:100056003626160676665646B7A79787F7E7D7C7B2
:100066004858687808182838C9D9E9F98999A9B982
:100076005A4A7A6A1A0A3A2ADBCBFBEB9B8BBBAB52
:100086006C7C4C5C2C3C0C1CEDFDCDDDADBD8D9D22
:100096007E6E5E4E3E2E1E0EFFEFDFCFBFAF9F8FF2
:1000A6009181B1A1D1C1F1E11000302050407060C2
:1000B6008393A3B3C3D3E3F3021222324252627292
:1000C600B5A59585F5E5D5C5342414047464544462
:1000D600A7B78797E7F7C7D7263606166676465632
:1000E600D9C9F9E99989B9A9584878681808382802
:1000F600CBDBEBFB8B9BABBB4A5A6A7A0A1A2A3AD2
:10010600FDEDDDCDBDAD9D8D7C6C5C4C3C2C1C0CA1
:10011600EFFFCFDFAFBF8F9F6E7E4E5E2E3E0E1E71
:100126000021426384A5C6E708294A6B8CADCEEF51
:1001360031107352B594F7D639187B5ABD9CFFDE41
:1001460062432001E6C7A4856A4B2809EECFAC8D31
:1001560053721130D7F695B45B7A1938DFFE9DBC21
:10016600C4E586A740610223CCED8EAF48690A2B11
:10017600F5D4B79671503312FDDCBF9E79583B1A01
:10018600A687E4C522036041AE8FECCD2A0B6849F1
:1001960097B6D5F4133251709FBEDDFC1B3A5978E1
:1001A60088A9CAEB0C2D4E6F80A1C2E304254667D1
:1001B600B998FBDA3D1C7F5EB190F3D235147756C1
:1001C600EACBA8896E4F2C0DE2C3A08166472405B1
:1001D600DBFA99B85F7E1D3CD3F291B057761534A1
:1001E6004C6D0E2FC8E98AAB44650627C0E182A391
:1001F6007D5C3F1EF9D8BB9A75543716F1D0B39281
:100206002E0F6C4DAA8BE8C926076445A283E0C170
:100216001F3E5D7C9BBAD9F81736557493B2D1F060
:10042700E4F557F558ED601E1202C66557FF9000B8
:1004370026936558F557EF90012693F558740129CF
:0A044700F9E43AFADDE2AE57AF58CF
:010451002288
:1004C7008B508A518952AC05120427AB50AA51A907
:1004D700528C82758300EE8FF0120329EC2402FF01
:0104E70022F2
:100452008D568B538A54895515561556AD5612042E
:1004620027AB53AA54A9558556827583001202F10F
:0B047200B50706EEB5F002D322C3224E
:100362000204E8E493A3F8E493A34003F68001F2C5
:1003720008DFF48029E493A3F85407240CC8C3339C
:10038200C4540F4420C8834004F456800146F6DF6B
:10039200E4800B010204081020408090059CE47E5A
:1003A200019360BCA3FF543F30E509541FFEE49360
:1003B200A360010ECF54C025E060A840B8E493A327
:1003C200FAE493A3F8E493A3C8C582C8CAC583CA52
:1003D200F0A3C8C582C8CAC583CADFE9DEE780BE0A
:0105A5000055
:1002C600BB010689828A83E0225002E722BBFE0236
:0902D600E32289828A83E4932269
:1002DF00BB010689828A83F0225002F722BBFE01FE
:0202EF00F322F8
:1002F100BB0110E58229F582E5833AF583E0F5F04B
:10030100A3E0225009E92582F886F008E622BBFE27
:100311000AE92582F8E2F5F008E222E5832AF5836D
:08032100E993F5F0A3E9932232
:10032900F8BB0111E58229F582E5833AF583E8F006
:10033900E5F0A3F0225009E92582C8F608A6F022C3
:0D034900BBFE09E92582C8F2E5F008F222AA
:00000001FF
