:0300000002037583
:0C037500787FE4F6D8FD75814B0203BCD4
:0305BB00014801F3
:100401007F381205A67F0C1205A67F061205A67F6E
:10041100011205A67F861205A6E4FFC3940A4004D3
:100421007E3780027E30EE2FFF1205CD7F01EFC3B4
:10043100940A40047E3780027E30EE2FFF1205CDF4
:050441007F3A0205CD29
:0A05B1007F891205A67F590205CDCF
:1004C4008F13E513D394097F89500D1205A6E51304
:1004D4002430FF1205CDD3221205A67F4E1205CD7E
:0204E400C32231
:05001E007F310205C561
:10056E007598F0E4F587758920AF218F8B8F8DD22A
:06057E008ED2AFD2AC22C8
:060555008B138A148915C6
:10055B00751A047D2812049CAD07AB13AA14A915B8
:03056B0002047116
:1005070012040112056E7545FF7546057547B175ED
:0A05170049FF754A00754B1E80FE77
:03002300020226B0
:10022600C0E0C0F0C083C082C0D075D000C000C09E
:0D02360001C002C003C004C005C006C0071F
:10024300C2AC2098030202C8309A2AC29885990941
:10025300E50914600A240B6018047069209D66C2C6
:100263009D750901750A017B007A0079097D028079
:1002730043D29D80507B007A007909120555504581
:10028300E50924FD602324F2703BAF0A1204C45035
:1002930004AF0A80027FFF8F0B750904750A017B87
:1002A300007A0079097D03800B7509007B007A00D1
:1002B30079097D011204E6AD077B007A007909759F
:0702C3001700120003D2AC8A
:1002CA00D007D006D005D004D003D002D001D00088
:0B02DA00D0D0D082D083D0F0D0E03232
:100521007F017580FFC2A2C2A0D2A1D2A2AE80EE8D
:0905310030E7040FEF70EEC2A2E6
:01053A00229E
:0B05A600EF6007C201F514120584226B
:0705CD00D2018F1402058426
:10058400120521C2A1A20192A0851480D2A200C2A8
:02059400A222A1
:0805C5008F993099FDC29922C3
:10000300ED60171202E5FF1205C5AF17EF6002DFBF
:0A001300FE740129F9E43AFADDE970
:01001D0022C0
:10053B00309802800CEF60101F7E7CEE60F73098D5
:09054B0004C298D3221E80F3C300
:010554002284
:10059600AF0512053B5007E5991202FED322C3228E
:06049C008B168A17891877
:1004A200E4FC120596501874012518F518E4351766
:1004B200F5170CAB16FAA918AD1A12059640E8AF5B
:0104C2000435
:0104C3002216
:0605BE000121FD012200F5
:1000260000102030405060708191A1B1C1D1E1F142
:1000360012023222524272629383B3A3D3C3F3E312
:100046002434041464744454A5B58595E5F5C5D5E2
:100056003626160676665646B7A79787F7E7D7C7B2
:100066004858687808182838C9D9E9F98999A9B982
:100076005A4A7A6A1A0A3A2ADBCBFBEB9B8BBBAB52
:100086006C7C4C5C2C3C0C1CEDFDCDDDADBD8D9D22
:100096007E6E5E4E3E2E1E0EFFEFDFCFBFAF9F8FF2
:1000A6009181B1A1D1C1F1E11000302050407060C2
:1000B6008393A3B3C3D3E3F3021222324252627292
:1000C600B5A59585F5E5D5C5342414047464544462
:1000D600A7B78797E7F7C7D7263606166676465632
:1000E600D9C9F9E99989B9A9584878681808382802
:1000F600CBDBEBFB8B9BABBB4A5A6A7A0A1A2A3AD2
:10010600FDEDDDCDBDAD9D8D7C6C5C4C3C2C1C0CA1
:10011600EFFFCFDFAFBF8F9F6E7E4E5E2E3E0E1E71
:100126000021426384A5C6E708294A6B8CADCEEF51
:1001360031107352B594F7D639187B5ABD9CFFDE41
:1001460062432001E6C7A4856A4B2809EECFAC8D31
:1001560053721130D7F695B45B7A1938DFFE9DBC21
:10016600C4E586A740610223CCED8EAF48690A2B11
:10017600F5D4B79671503312FDDCBF9E79583B1A01
:10018600A687E4C522036041AE8FECCD2A0B6849F1
:1001960097B6D5F4133251709FBEDDFC1B3A5978E1
:1001A60088A9CAEB0C2D4E6F80A1C2E304254667D1
:1001B600B998FBDA3D1C7F5EB190F3D235147756C1
:1001C600EACBA8896E4F2C0DE2C3A08166472405B1
:1001D600DBFA99B85F7E1D3CD3F291B057761534A1
:1001E6004C6D0E2FC8E98AAB44650627C0E182A391
:1001F6007D5C3F1EF9D8BB9A75543716F1D0B39281
:100206002E0F6C4DAA8BE8C926076445A283E0C170
:100216001F3E5D7C9BBAD9F81736557493B2D1F060
:10044600E4F51AF51BED601E1202E5651AFF900031
:100456002693651BF51AEF90012693F51B74012967
:0A046600F9E43AFADDE2AE1AAF1B2A
:010470002269
:1004E6008B138A148915AC05120446AB13AA14A9FA
:1004F600158C82758300EE8FF0120348EC2402FF00
:0105060022D2
:100471008D198B168A17891815191519AD191204BA
:1004810046AB16AA17A918851982758300120310A5
:0B049100B50706EEB5F002D322C3222F
:10038100020507E493A3F8E493A34003F68001F286
:1003910008DFF48029E493A3F85407240CC8C3337D
:1003A100C4540F4420C8834004F456800146F6DF4C
:1003B100E4800B01020408102040809005BBE47E1C
:1003C100019360BCA3FF543F30E509541FFEE49341
:1003D100A360010ECF54C025E060A840B8E493A308
:1003E100FAE493A3F8E493A3C8C582C8CAC583CA33
:1003F100F0A3C8C582C8CAC583CADFE9DEE780BEEB
:0105C4000036
:1002E500BB010689828A83E0225002E722BBFE0217
:0902F500E32289828A83E493224A
:1002FE00BB010689828A83F0225002F722BBFE01DF
:02030E00F322D8
:10031000BB0110E58229F582E5833AF583E0F5F02B
:10032000A3E0225009E92582F886F008E622BBFE08
:100330000AE92582F8E2F5F008E222E5832AF5834E
:08034000E993F5F0A3E9932213
:10034800F8BB0111E58229F582E5833AF583E8F0E7
:10035800E5F0A3F0225009E92582C8F608A6F022A4
:0D036800BBFE09E92582C8F2E5F008F2228B
:00000001FF
