:0300000002048C6B
:0C048C00787FE4F6D8FD7581230204D3CC
:04001D0002010000DC
:0307940001210040
:10070F00EF4E6011EF1F70011E7D7CED60F264C82B
:05071F0060EE1D80F6F4
:0107240022B2
:0100210022BC
:1006AF00750810AF0812078CAF081508EF600FAF71
:1006BF0021052112078CE4FFFE12070F80EA7F70DD
:0506CF007E1702070F79
:09078300EF60048000C322D322C0
:10073900759850E4F587758920AF238F8B8F8DD2FB
:020749008E22FE
:0B076D001200211207391206AF80FBBA
:030023000203FBDA
:1003FB00C0E0C0F0C083C082C0D075D000C000C0C8
:0D040B0001C002C003C004C005C006C00748
:10041800C2AC309852309F20309A0D7B007A007918
:100428000AE4FD12075D8023751700751800751919
:1004380000120602502E80217517007518007519D4
:10044800091206029201E509B4010B7B007A0079D2
:100458000A120583801130010B7B007A00790A1299
:090468000518800312065ED2ACF7
:10047100D007D006D005D004D003D002D001D000DF
:0B048100D0D0D082D083D0F0D0E03289
:060602007B007A00790A7A
:060608008B148A1589160F
:10060E00751E047D28120687AD07E5184519451796
:10061E00600AAB17AA18A919ED120362AB14AA153A
:05062E00A9160205C73A
:100583008B148A15891612031C600A240A6032042C
:100593007031209D2EC29DAB14AA15A916740112A9
:1005A3000362AB14AA15A916F582758300E412033E
:1005B300747D021206D4AD07AB14AA15A91602075F
:0405C30025D29D227E
:100518008B148A15891612031C24FD603D24F27081
:1005280059900001120335FF12078350047F04809D
:10053800027F05AB14AA15A916EF120362AB14AA21
:1005480015A9169000011203359000021203749049
:100558000001E41203747D038012AB14AA15A916D6
:10056800E4120362AB14AA15A9167D011206D4ADD4
:0B05780007AB14AA15A91612072522D4
:10065E0078147C007D007BFF7A00791D7E007F047C
:10066E001202F67B007A0079147D031206D4AD07D0
:09067E007B007A00791402075D8B
:100003007F017580FFC292C290D291D292AE80EEF0
:0900130030E7040FEF70EEC29219
:01001C0022C1
:0B077800EF6007C200F52212074B22C1
:07079B00D2008F2202074B80
:10074B00120003C291A2009290852280D29200C225
:02075B009222E8
:08078C008F993099FDC29922FA
:10072500ED601012031CFF12078C740129F9E43ADD
:04073500FADDF022D7
:1006F500309802800CEF60101F7E7CEE60F730981A
:0907050004C298D3221E80F3C344
:01070E0022C8
:10075D00AF051206F55007E599120362D322C322A5
:060687008B1A8A1B891C7E
:10068D00E4FC12075D50187401251CF51CE4351BA4
:10069D00F51B0CAB1AFAA91CAD1E12075D40E8AF95
:0106AD000448
:0106AE002229
:030797000123FD3E
:1000260000102030405060708191A1B1C1D1E1F142
:1000360012023222524272629383B3A3D3C3F3E312
:100046002434041464744454A5B58595E5F5C5D5E2
:100056003626160676665646B7A79787F7E7D7C7B2
:100066004858687808182838C9D9E9F98999A9B982
:100076005A4A7A6A1A0A3A2ADBCBFBEB9B8BBBAB52
:100086006C7C4C5C2C3C0C1CEDFDCDDDADBD8D9D22
:100096007E6E5E4E3E2E1E0EFFEFDFCFBFAF9F8FF2
:1000A6009181B1A1D1C1F1E11000302050407060C2
:1000B6008393A3B3C3D3E3F3021222324252627292
:1000C600B5A59585F5E5D5C5342414047464544462
:1000D600A7B78797E7F7C7D7263606166676465632
:1000E600D9C9F9E99989B9A9584878681808382802
:1000F600CBDBEBFB8B9BABBB4A5A6A7A0A1A2A3AD2
:10010600FDEDDDCDBDAD9D8D7C6C5C4C3C2C1C0CA1
:10011600EFFFCFDFAFBF8F9F6E7E4E5E2E3E0E1E71
:100126000021426384A5C6E708294A6B8CADCEEF51
:1001360031107352B594F7D639187B5ABD9CFFDE41
:1001460062432001E6C7A4856A4B2809EECFAC8D31
:1001560053721130D7F695B45B7A1938DFFE9DBC21
:10016600C4E586A740610223CCED8EAF48690A2B11
:10017600F5D4B79671503312FDDCBF9E79583B1A01
:10018600A687E4C522036041AE8FECCD2A0B6849F1
:1001960097B6D5F4133251709FBEDDFC1B3A5978E1
:1001A60088A9CAEB0C2D4E6F80A1C2E304254667D1
:1001B600B998FBDA3D1C7F5EB190F3D235147756C1
:1001C600EACBA8896E4F2C0DE2C3A08166472405B1
:1001D600DBFA99B85F7E1D3CD3F291B057761534A1
:1001E6004C6D0E2FC8E98AAB44650627C0E182A391
:1001F6007D5C3F1EF9D8BB9A75543716F1D0B39281
:100206002E0F6C4DAA8BE8C926076445A283E0C170
:100216001F3E5D7C9BBAD9F81736557493B2D1F060
:10063300E4F51EF51FED601E12031C651EFF9000FE
:100643002693651FF51EEF90012693F51F7401296C
:0A065300F9E43AFADDE2AE1EAF1F33
:01065D00227A
:1006D4008B188A19891AAC05120633AB18AA19A902
:1006E4001A8C82758300EE8FF01203CEEC2402FF85
:0106F40022E3
:1005C7008B1A8A1B891C8D1DE51DC394025002C31B
:1005D70022151D151DAB1AAA1BA91CAD1D1206332A
:1005E700AB1AAA1BA91C851D82758300120396B539
:0B05F7000707EEB5F003D38001C3221C
:1004980002076DE493A3F8E493A34003F68001F206
:1004A80008DFF48029E493A3F85407240CC8C33365
:1004B800C4540F4420C8834004F456800146F6DF34
:1004C800E4800B0102040810204080900794E47E29
:1004D800019360BCA3FF543F30E509541FFEE49329
:1004E800A360010ECF54C025E060A840B8E493A3F0
:1004F800FAE493A3F8E493A3C8C582C8CAC583CA1B
:10050800F0A3C8C582C8CAC583CADFE9DEE780BED2
:01079A00005E
:10022600E709F608DFFA8046E709F208DFFA803EBA
:1002360088828C83E709F0A3DFFA8032E309F608A7
:10024600DFFA8078E309F208DFFA807088828C830F
:10025600E309F0A3DFFA806489828A83E0A3F608C3
:10026600DFFA805889828A83E0A3F208DFFA804C9D
:1002760080D280FA80C680D4806980F28033801074
:1002860080A680EA809A80A880DA80E280CA8033DD
:1002960089828A83ECFAE493A3C8C582C8CCC58355
:1002A600CCF0A3C8C582C8CCC583CCDFE9DEE78025
:1002B6000D89828A83E493A3F608DFF9ECFAA9F0A4
:1002C600EDFB2289828A83ECFAE0A3C8C582C8CCFA
:1002D600C583CCF0A3C8C582C8CCC583CCDFEADE13
:1002E600E880DB89828A83E493A3F208DFF980CC75
:1002F60088F0EF60010E4E60C388F0ED2402B4046E
:100306000050B9F582EB2402B4040050AF23234514
:06031600822390027673C1
:10031C00BB010689828A83E0225002E722BBFE02DF
:09032C00E32289828A83E4932212
:10033500BB010CE58229F582E5833AF583E022507D
:1003450006E92582F8E622BBFE06E92582F8E222C7
:0D035500E58229F582E5833AF583E49322E1
:10036200BB010689828A83F0225002F722BBFE017A
:02037200F32274
:10037400F8BB010DE58229F582E5833AF583E8F0BF
:10038400225006E92582C8F622BBFE05E92582C86B
:02039400F22253
:10039600BB0110E58229F582E5833AF583E0F5F0A5
:1003A600A3E0225009E92582F886F008E622BBFE82
:1003B6000AE92582F8E2F5F008E222E5832AF583C8
:0803C600E993F5F0A3E993228D
:1003CE00F8BB0111E58229F582E5833AF583E8F061
:1003DE00E5F0A3F0225009E92582C8F608A6F0221E
:0D03EE00BBFE09E92582C8F2E5F008F22205
:00000001FF
