:0300000002048C6B
:0C048C00787FE4F6D8FD7581210204D3CE
:04001D0002010000DC
:100584007F381207BB7F0C1207BB7F061207BB7FA5
:10059400011207BB7F861207BBE4FFC3940A400421
:1005A4007E3780027E30EE2FFF1207CE7F01EFC32D
:1005B400940A40047E3780027E30EE2FFF1207CE6D
:0505C4007F3A0207CEA2
:0100210022BC
:100648008F17E517D39409500B7F891207BBE5175D
:1006580024308010E517D394237F89500D1207BBEF
:10066800E5172437FF1207CED3221207BB7F2112CA
:0406780007CEC322C4
:10076400759850E4F587758920AF218F8B8F8DD2D2
:060774008ED2AFD2AC22D0
:0B07B00012058412076412002180FB78
:030023000203FBDA
:1003FB00C0E0C0F0C083C082C0D075D000C000C0C8
:0D040B0001C002C003C004C005C006C00748
:10041800C2AC309852309F20309A0D7B007A007918
:100428000AE4FD1207A080237517007518007519D6
:100438000012067C502E802175170075180075195A
:100448000912067C9201E509B4010B7B007A007958
:100458000A1205C9801130010B7B007A00790A1253
:09046800051880031206D8D2AC7D
:10047100D007D006D005D004D003D002D001D000DF
:0B048100D0D0D082D083D0F0D0E03289
:06067C007B007A00790A00
:060682008B148A15891695
:10068800751E047D28120701AD07E51845194517A1
:10069800600AAB17AA18A919ED120362AB14AA15C0
:0506A800A91602060D79
:1005C9008B148A15891612031C14600A240B6031D6
:1005D900047030209D2DC29DAB14AA15A916740173
:1005E900120362AB14AA15A916F5827583001203CA
:1005F900747D02120729AD07AB14AA15A9160207C3
:040609007AD29D22E2
:100518008B148A15891612031C24FD603E24F27080
:100528005A900001120335FF12064850047F0480D8
:10053800027F05AB14AA15A916EF120362AB14AA21
:1005480015A9169000011203359000021203749049
:10055800000174011203747D038012AB14AA15A95B
:1005680016E4120362AB14AA15A9167D0112072915
:0C057800AD07AB14AA15A91612077A22D1
:1006D80078147C007D007BFF7A00791D7E007F0402
:1006E8001202F67B007A0079147D03120729AD0700
:0906F8007B007A0079140207A0CE
:100003007F017580FFC292C290D291D292AE80EEF0
:0900130030E7040FEF70EEC29219
:01001C0022C1
:0B07BB00EF6007C202F51812078E2243
:0707CE00D2028F1802078E12
:10078E00120003C291A2029290851880D29200C2EA
:02079E009222A5
:0807C6008F993099FDC29922C0
:10077A00ED601012031CFF1207C6740129F9E43A4E
:04078A00FADDF02282
:10074A00309802800CEF60101F7E7CEE60F73098C4
:09075A0004C298D3221E80F3C3EF
:010763002273
:1007A000AF0512074A5007E599120362D322C3220C
:060701008B1A8A1B891C03
:10070700E4FC1207A050187401251CF51CE4351BE6
:10071700F51B0CAB1AFAA91CAD1E1207A040E8AFD7
:0107270004CD
:0107280022AE
:0307D5000121FD02
:1000260000102030405060708191A1B1C1D1E1F142
:1000360012023222524272629383B3A3D3C3F3E312
:100046002434041464744454A5B58595E5F5C5D5E2
:100056003626160676665646B7A79787F7E7D7C7B2
:100066004858687808182838C9D9E9F98999A9B982
:100076005A4A7A6A1A0A3A2ADBCBFBEB9B8BBBAB52
:100086006C7C4C5C2C3C0C1CEDFDCDDDADBD8D9D22
:100096007E6E5E4E3E2E1E0EFFEFDFCFBFAF9F8FF2
:1000A6009181B1A1D1C1F1E11000302050407060C2
:1000B6008393A3B3C3D3E3F3021222324252627292
:1000C600B5A59585F5E5D5C5342414047464544462
:1000D600A7B78797E7F7C7D7263606166676465632
:1000E600D9C9F9E99989B9A9584878681808382802
:1000F600CBDBEBFB8B9BABBB4A5A6A7A0A1A2A3AD2
:10010600FDEDDDCDBDAD9D8D7C6C5C4C3C2C1C0CA1
:10011600EFFFCFDFAFBF8F9F6E7E4E5E2E3E0E1E71
:100126000021426384A5C6E708294A6B8CADCEEF51
:1001360031107352B594F7D639187B5ABD9CFFDE41
:1001460062432001E6C7A4856A4B2809EECFAC8D31
:1001560053721130D7F695B45B7A1938DFFE9DBC21
:10016600C4E586A740610223CCED8EAF48690A2B11
:10017600F5D4B79671503312FDDCBF9E79583B1A01
:10018600A687E4C522036041AE8FECCD2A0B6849F1
:1001960097B6D5F4133251709FBEDDFC1B3A5978E1
:1001A60088A9CAEB0C2D4E6F80A1C2E304254667D1
:1001B600B998FBDA3D1C7F5EB190F3D235147756C1
:1001C600EACBA8896E4F2C0DE2C3A08166472405B1
:1001D600DBFA99B85F7E1D3CD3F291B057761534A1
:1001E6004C6D0E2FC8E98AAB44650627C0E182A391
:1001F6007D5C3F1EF9D8BB9A75543716F1D0B39281
:100206002E0F6C4DAA8BE8C926076445A283E0C170
:100216001F3E5D7C9BBAD9F81736557493B2D1F060
:1006AD00E4F51EF51FED601E12031C651EFF900084
:1006BD002693651FF51EEF90012693F51F740129F2
:0A06CD00F9E43AFADDE2AE1EAF1FB9
:0106D7002200
:100729008B188A19891AAC051206ADAB18AA19A932
:100739001A8C82758300EE8FF01203CEEC2402FF2F
:01074900228D
:10060D008B1A8A1B891C8D1DE51DC394025002C3D4
:10061D0022151D151DAB1AAA1BA91CAD1D1206AD69
:10062D00AB1AAA1BA91C851D82758300120396B5F2
:0B063D000707EEB5F003D38001C322D5
:100498000207B0E493A3F8E493A34003F68001F2C3
:1004A80008DFF48029E493A3F85407240CC8C33365
:1004B800C4540F4420C8834004F456800146F6DF34
:1004C800E4800B01020408102040809007D5E47EE8
:1004D800019360BCA3FF543F30E509541FFEE49329
:1004E800A360010ECF54C025E060A840B8E493A3F0
:1004F800FAE493A3F8E493A3C8C582C8CAC583CA1B
:10050800F0A3C8C582C8CAC583CADFE9DEE780BED2
:0107D8000020
:10022600E709F608DFFA8046E709F208DFFA803EBA
:1002360088828C83E709F0A3DFFA8032E309F608A7
:10024600DFFA8078E309F208DFFA807088828C830F
:10025600E309F0A3DFFA806489828A83E0A3F608C3
:10026600DFFA805889828A83E0A3F208DFFA804C9D
:1002760080D280FA80C680D4806980F28033801074
:1002860080A680EA809A80A880DA80E280CA8033DD
:1002960089828A83ECFAE493A3C8C582C8CCC58355
:1002A600CCF0A3C8C582C8CCC583CCDFE9DEE78025
:1002B6000D89828A83E493A3F608DFF9ECFAA9F0A4
:1002C600EDFB2289828A83ECFAE0A3C8C582C8CCFA
:1002D600C583CCF0A3C8C582C8CCC583CCDFEADE13
:1002E600E880DB89828A83E493A3F208DFF980CC75
:1002F60088F0EF60010E4E60C388F0ED2402B4046E
:100306000050B9F582EB2402B4040050AF23234514
:06031600822390027673C1
:10031C00BB010689828A83E0225002E722BBFE02DF
:09032C00E32289828A83E4932212
:10033500BB010CE58229F582E5833AF583E022507D
:1003450006E92582F8E622BBFE06E92582F8E222C7
:0D035500E58229F582E5833AF583E49322E1
:10036200BB010689828A83F0225002F722BBFE017A
:02037200F32274
:10037400F8BB010DE58229F582E5833AF583E8F0BF
:10038400225006E92582C8F622BBFE05E92582C86B
:02039400F22253
:10039600BB0110E58229F582E5833AF583E0F5F0A5
:1003A600A3E0225009E92582F886F008E622BBFE82
:1003B6000AE92582F8E2F5F008E222E5832AF583C8
:0803C600E993F5F0A3E993228D
:1003CE00F8BB0111E58229F582E5833AF583E8F061
:1003DE00E5F0A3F0225009E92582C8F608A6F0221E
:0D03EE00BBFE09E92582C8F2E5F008F22205
:00000001FF
