:0300000002037682
:0C037600787FE4F6D8FD75814B0203BDD2
:0305BC00014802F1
:100402007F381205A77F0C1205A77F061205A77F6A
:10041200011205A77F861205A7E4FFC3940A4004D0
:100422007E3780027E30EE2FFF1205CE7F02EFC3B1
:10043200940A40047E3780027E30EE2FFF1205CEF2
:050442007F3A0205CE27
:0A05B2007F891205A7AF990205CE5C
:1004C5008F13E513D394097F89500D1205A7E51302
:1004D5002430FF1205CED3221205A77F4E1205CE7A
:0204E500C32230
:05001E007F320205C65F
:10056F007598F0E4F587758920AF218F8B8F8DD229
:06057F008ED2AFD2AC22C7
:060556008B138A148915C5
:10055C00751A047D2812049DAD07AB13AA14A915B6
:03056C0002047214
:1005080012040212056F7545FF7546057547B275E9
:0A05180049FF754A00754B1E80FE76
:03002300020226B0
:10022600C0E0C0F0C083C082C0D075D000C000C09E
:0D02360001C002C003C004C005C006C0071F
:10024300C2AC2098030202C9309A2BC2988599093F
:10025300E50924FE600A240C6018047069209D6679
:10026300C29D750901750A027B007A0079097D0236
:100273008043D29D80507B007A0079091205565045
:1002830045E50924FD602324F2703BAF0A1204C53F
:100293005004AF0A80027FFF8F0B750904750A02B1
:1002A3007B007A0079097D03800B7509007B007A56
:1002B3000079097D011204E7AD077B007A00790913
:0802C300751700120003D2AC14
:1002CB00D007D006D005D004D003D002D001D00087
:0B02DB00D0D0D082D083D0F0D0E03231
:100522007F017580FFC2A2C2A0D2A1D2A2AE80EE8C
:0905320030E7040FEF70EEC2A2E5
:01053B00229D
:0B05A700EF6007C201F5141205852269
:0705CE00D2018F1402058524
:10058500120522C2A1A20192A0851480D2A200C2A6
:02059500A222A0
:0805C6008F993099FDC29922C2
:10000300ED60171202E6FF1205C6AF17EF6002DFBD
:0A001300FE740129F9E43AFADDE970
:01001D0022C0
:10053C00309802800CEF60101F7E7CEE60F73098D4
:09054C0004C298D3221E80F3C3FF
:010555002283
:10059700AF0512053C5007E5991202FFD322C3228B
:06049D008B168A17891876
:1004A300E4FC120597501874012518F518E4351764
:1004B300F5170CAB16FAA918AD1A12059740E8AF59
:0104C3000434
:0104C4002215
:0605BF000121FD012200F4
:1000260000102030405060708191A1B1C1D1E1F142
:1000360012023222524272629383B3A3D3C3F3E312
:100046002434041464744454A5B58595E5F5C5D5E2
:100056003626160676665646B7A79787F7E7D7C7B2
:100066004858687808182838C9D9E9F98999A9B982
:100076005A4A7A6A1A0A3A2ADBCBFBEB9B8BBBAB52
:100086006C7C4C5C2C3C0C1CEDFDCDDDADBD8D9D22
:100096007E6E5E4E3E2E1E0EFFEFDFCFBFAF9F8FF2
:1000A6009181B1A1D1C1F1E11000302050407060C2
:1000B6008393A3B3C3D3E3F3021222324252627292
:1000C600B5A59585F5E5D5C5342414047464544462
:1000D600A7B78797E7F7C7D7263606166676465632
:1000E600D9C9F9E99989B9A9584878681808382802
:1000F600CBDBEBFB8B9BABBB4A5A6A7A0A1A2A3AD2
:10010600FDEDDDCDBDAD9D8D7C6C5C4C3C2C1C0CA1
:10011600EFFFCFDFAFBF8F9F6E7E4E5E2E3E0E1E71
:100126000021426384A5C6E708294A6B8CADCEEF51
:1001360031107352B594F7D639187B5ABD9CFFDE41
:1001460062432001E6C7A4856A4B2809EECFAC8D31
:1001560053721130D7F695B45B7A1938DFFE9DBC21
:10016600C4E586A740610223CCED8EAF48690A2B11
:10017600F5D4B79671503312FDDCBF9E79583B1A01
:10018600A687E4C522036041AE8FECCD2A0B6849F1
:1001960097B6D5F4133251709FBEDDFC1B3A5978E1
:1001A60088A9CAEB0C2D4E6F80A1C2E304254667D1
:1001B600B998FBDA3D1C7F5EB190F3D235147756C1
:1001C600EACBA8896E4F2C0DE2C3A08166472405B1
:1001D600DBFA99B85F7E1D3CD3F291B057761534A1
:1001E6004C6D0E2FC8E98AAB44650627C0E182A391
:1001F6007D5C3F1EF9D8BB9A75543716F1D0B39281
:100206002E0F6C4DAA8BE8C926076445A283E0C170
:100216001F3E5D7C9BBAD9F81736557493B2D1F060
:10044700E4F51AF51BED601E1202E6651AFF90002F
:100457002693651BF51AEF90012693F51B74012966
:0A046700F9E43AFADDE2AE1AAF1B29
:010471002268
:1004E7008B138A148915AC05120447AB13AA14A9F8
:1004F700158C82758300EE8FF0120349EC2402FFFE
:0105070022D1
:100472008D198B168A17891815191519AD191204B9
:1004820047AB16AA17A918851982758300120311A2
:0B049200B50706EEB5F002D322C3222E
:10038200020508E493A3F8E493A34003F68001F284
:1003920008DFF48029E493A3F85407240CC8C3337C
:1003A200C4540F4420C8834004F456800146F6DF4B
:1003B200E4800B01020408102040809005BCE47E1A
:1003C200019360BCA3FF543F30E509541FFEE49340
:1003D200A360010ECF54C025E060A840B8E493A307
:1003E200FAE493A3F8E493A3C8C582C8CAC583CA32
:1003F200F0A3C8C582C8CAC583CADFE9DEE780BEEA
:0105C5000035
:1002E600BB010689828A83E0225002E722BBFE0216
:0902F600E32289828A83E4932249
:1002FF00BB010689828A83F0225002F722BBFE01DE
:02030F00F322D7
:10031100BB0110E58229F582E5833AF583E0F5F02A
:10032100A3E0225009E92582F886F008E622BBFE07
:100331000AE92582F8E2F5F008E222E5832AF5834D
:08034100E993F5F0A3E9932212
:10034900F8BB0111E58229F582E5833AF583E8F0E6
:10035900E5F0A3F0225009E92582C8F608A6F022A3
:0D036900BBFE09E92582C8F2E5F008F2228A
:00000001FF
