:03000000020112E8
:0C011200787FE4F6D8FD758142020159A7
:0A0342000000070B0D0E70B0D0E0B4
:1002BE00112120202057656C636F6D6520746F20AF
:1002CE0020200011326162636465666768696A6B3B
:0602DE006C6D6E6F7000F4
:1002290078087C007D007BFF7A0379427E007F029B
:100239001200D31202FD7598E8E4F587758920AF9D
:10024900148F8B8F8DD28E12019EE590B40FFBEF28
:10025900F460F4EFC3940A40047E3780027E30EEE6
:100269002FF5087B007A007908E4FDFC12028ED292
:100279009B7599013099FDC299C29B85089930995E
:05028900FDC29980C2D6
:10019E00780C7C007D007BFF7A0379447E007F041F
:1001AE001200D378107C007D007BFF7A0379487EA5
:1001BE00007F041200D375900FE590640F60568592
:1001CE00900A7F057E001202E8E50A65907046757A
:1001DE0090F0E59064F0603D85900B7F057E0012F7
:1001EE0002E8E50B6590702D7F03740C2FF8E6B5D1
:1001FE000A028F0A74102FF8E6B50B07EF25E025DB
:10020E00E0F50B1FC3EF6480948050DE75900FE510
:0A021E000A450BFF2275900F7FFFC9
:0102280022B3
:1002E800EF1FAA0670011E4A600A7D7BAC051DEC53
:0402F80060EE80F83C
:0102FC0022DF
:10028E008B0A8A0B890C8C0D8D0EAB0AAA0BA90C4E
:10029E001200F9601A050CE50C7002050B14F91228
:1002AE0000F9FF12034CAF0EAE0D1202E880DB22F6
:1002FD007F381203377F0C1203377F061203377FC7
:04030D0001020337AF
:100311007580FFC2A2C2A0D2A1D2A2AF80EF20E716
:03032100F2C2A283
:0103240022B6
:0B033700EF6007C200F50F1203252243
:07034C00D2008F0F02032510
:10032500120311C2A1A20092A0850F80D2A200C221
:02033500A22202
:0302E4000114FD05
:10011E00020229E493A3F8E493A34003F68001F2CC
:10012E0008DFF48029E493A3F85407240CC8C333E2
:10013E00C4540F4420C8834004F456800146F6DFB1
:10014E00E4800B01020408102040809002BEE47E81
:10015E00019360BCA3FF543F30E509541FFEE493A6
:10016E00A360010ECF54C025E060A840B8E493A36D
:10017E00FAE493A3F8E493A3C8C582C8CAC583CA98
:10018E00F0A3C8C582C8CAC583CADFE9DEE780BE50
:0102E7000016
:10000300E709F608DFFA8046E709F208DFFA803EDF
:1000130088828C83E709F0A3DFFA8032E309F608CC
:10002300DFFA8078E309F208DFFA807088828C8334
:10003300E309F0A3DFFA806489828A83E0A3F608E8
:10004300DFFA805889828A83E0A3F208DFFA804CC2
:1000530080D280FA80C680D4806980F28033801099
:1000630080A680EA809A80A880DA80E280CA803302
:1000730089828A83ECFAE493A3C8C582C8CCC5837A
:10008300CCF0A3C8C582C8CCC583CCDFE9DEE7804A
:100093000D89828A83E493A3F608DFF9ECFAA9F0C9
:1000A300EDFB2289828A83ECFAE0A3C8C582C8CC1F
:1000B300C583CCF0A3C8C582C8CCC583CCDFEADE38
:1000C300E880DB89828A83E493A3F208DFF980CC9A
:1000D30088F0EF60010E4E60C388F0ED2402B40493
:1000E3000050B9F582EB2402B4040050AF2323453A
:0600F3008223900053730C
:1000F900BB010689828A83E0225002E722BBFE0205
:09010900E32289828A83E4932237
:00000001FF
