:0300000002050BEB
:0C050B00787FE4F6D8FD758141020552AE
:100003006162515745704F694D6E6975696F7148EB
:100013004A4B594F554967686769554869756C6814
:100023005554476856474B554A6269756364734232
:100033005549554F49686E6473686F69684C4E4BF8
:10004300534A44484F4E4F5555496E6473696F7513
:10005300646F4E4453494F4F754F49486E6F7064F8
:1000630073686E64534F4944554A504F49576E6DF8
:1000730064707361706A64706F49504A6A64696F2F
:10008300736E444C494F5553696F6E6D3B6C534FC0
:10009300444A6F696A4C4B44534A696F686F757180
:1000A300777965756942534449554A6875616E624B
:1000B30077644C486E6263787569637961697571B9
:1000C3006173647771494F000010203040506070B5
:1000D3008191A1B1C1D1E1F1120232225242726285
:1000E3009383B3A3D3C3F3E3243404146474445455
:1000F300A5B58595E5F5C5D5362616067666564625
:10010300B7A79787F7E7D7C74858687808182838F4
:10011300C9D9E9F98999A9B95A4A7A6A1A0A3A2AC4
:10012300DBCBFBEB9B8BBBAB6C7C4C5C2C3C0C1C94
:10013300EDFDCDDDADBD8D9D7E6E5E4E3E2E1E0E64
:10014300FFEFDFCFBFAF9F8F9181B1A1D1C1F1E1AC
:1001530010003020504070608393A3B3C3D3E3F304
:100163000212223242526272B5A59585F5E5D5C5D4
:100173003424140474645444A7B78797E7F7C7D7A4
:100183002636061666764656D9C9F9E99989B9A974
:100193005848786818083828CBDBEBFB8B9BABBB44
:1001A3004A5A6A7A0A1A2A3AFDEDDDCDBDAD9D8D14
:1001B3007C6C5C4C3C2C1C0CEFFFCFDFAFBF8F9FE4
:1001C3006E7E4E5E2E3E0E1E0021426384A5C6E760
:1001D30008294A6B8CADCEEF31107352B594F7D624
:1001E30039187B5ABD9CFFDE62432001E6C7A48514
:1001F3006A4B2809EECFAC8D53721130D7F695B404
:100203005B7A1938DFFE9DBCC4E586A740610223F3
:10021300CCED8EAF48690A2BF5D4B79671503312E3
:10022300FDDCBF9E79583B1AA687E4C522036041D3
:10023300AE8FECCD2A0B684997B6D5F413325170C3
:100243009FBEDDFC1B3A597888A9CAEB0C2D4E6F73
:1002530080A1C2E304254667B998FBDA3D1C7F5EA3
:10026300B190F3D235147756EACBA8896E4F2C0D93
:10027300E2C3A08166472405DBFA99B85F7E1D3C83
:10028300D3F291B0577615344C6D0E2FC8E98AAB73
:1002930044650627C0E182A37D5C3F1EF9D8BB9A63
:1002A30075543716F1D0B3922E0F6C4DAA8BE8C953
:1002B30026076445A283E0C11F3E5D7C9BBAD9F843
:1002C3001736557493B2D1F0070B0D0E70B0D0E012
:100842007598D0E4F587758920AF418F8B8F8DD253
:020852008E22F4
:0806F9007BFF7A0079037DC844
:10070100E4F53BF53CED601F1203C9653BFF90002A
:10071100CB93653CF53BEF9001CB93F53C1D740108
:0B07210029F9E43AFA80DEAE3BAF3C61
:01072C0022AA
:0606BD007A0079037DC8FC
:0606C3008B3B8A3C893DDF
:1006C900E4F53EF53FED6023AB3BAA3CA93DF5823D
:1006D9007583001203E2653EFF9000CB93653FF5F9
:0F06E9003EEF9001CB93F53F1D80DAAE3EAF3F61
:0106F80022DF
:1007EC001206F91206BD1206F91206BD1206F97AA6
:0807FC000079037DC80206C369
:10059700780A7C007D007BFF7A0279CB7E007F049E
:1005A7001203A3780E7C007D007BFF7A0279CF7E51
:1005B700007F041203A375900FE590640F605685C2
:1005C70090087F057E00120804E50865907046755F
:1005D70090F0E59064F0603D8590097F057E0012FC
:1005E7000804E5096590702D7F03740A2FF8E6B5B6
:1005F70008028F08740E2FF8E6B50907EF25E025E6
:10060700E0F5091FC3EF6480948050DE75900FE515
:0A061700084509FF2275900F7FFFD0
:0106210022B6
:10080400EF1FAA0670011E4A600A7D7BAC051DEC31
:0408140060EE80F81A
:0108180022BD
:100761008B1B8A1C891D8C1E8D1FAB1BAA1CA91DEE
:100771001203C9601A051DE51D7002051C14F9124A
:1007810003C9FF120879AF1FAE1E12080480DB22D5
:10082E007F381208667F0E1208667F061208667FF2
:04083E000102086645
:1007D2007F017580FFC2B4C2B5D2B6D2B4AE80EE8C
:0907E20030E7040FEF70EEC2B421
:0107EB0022EB
:0B086600EF6007C200F54012085422AA
:07087900D2008F4002085479
:100854001207D2C2B6A20092B5854080D2B400C2BB
:02086400B422BC
:080871008F993099FDC2992214
:10081900EF1FAA0670011E4A600A7D7BAC051DEC1C
:0408290060EE80F805
:01082D0022A8
:10072D008B368A3789388C398D3AAB36AA37A9384A
:10073D001203C9601A0538E5387002053714F9122D
:10074D0003C9FF120871AF3AAE3912081980DB7F69
:04075D0024020871F9
:100791008B318A328933D29B120871AF35AE341254
:1007A1000819C29BAB31AA32A933AD35AC3402076B
:0107B1002D1A
:1007B2003098028015EF1FAA0670011E4A600F7D55
:0F07C2007BAC051DEC60EE3098F7C298D322C3D4
:0107D1002205
:100673008B218A228923C29DAF28AE271207B2504D
:1006830037E5996424601EE522452345216007AAC6
:1006930022A923120464E59964246009AF28AE27D4
:1006A3001207B240E2E525452645246007AA25A99D
:0A06B30026120464D29DD322C32254
:100622008F128B138A148915D29DAF1AAE19120735
:10063200B2503C309A39E59965126004E512702F88
:10064200E512600AC374FF9512C39410500975161F
:10065200007517007518008516248517258518263C
:10066200851927851A28AB13AA14A915020673C384
:010672002265
:06046A008B2B8A2C892D6A
:10047000852E82758300E4120442E52E7003020586
:100480000AF52FED64026011ED6408600CED640A5A
:100490006007ED641060027D0AEF800BE52E60219D
:1004A000EF8DF084FF601A8DF084E5F02430AB2BE3
:1004B000AA2CA92D152E852E827583001204428048
:1004C000DBED6410702BAF2F152FEFD3952E40214D
:1004D000AB2BAA2CA92D852F827583001203E2D3A2
:1004E000943940E2852F82758300740712040F80CF
:1004F000D5E52E6015AB2BAA2CA92D152E852E82A5
:0A050000758300742012044280E7A6
:01050A0022CE
:030880000141FD36
:100517000207ECE493A3F8E493A34003F68001F207
:1005270008DFF48029E493A3F85407240CC8C333E5
:10053700C4540F4420C8834004F456800146F6DFB4
:10054700E4800B0102040810204080900880E47EBC
:10055700019360BCA3FF543F30E509541FFEE493A9
:10056700A360010ECF54C025E060A840B8E493A370
:10057700FAE493A3F8E493A3C8C582C8CAC583CA9B
:10058700F0A3C8C582C8CAC583CADFE9DEE780BE53
:010883000074
:1002D300E709F608DFFA8046E709F208DFFA803E0D
:1002E30088828C83E709F0A3DFFA8032E309F608FA
:1002F300DFFA8078E309F208DFFA807088828C8362
:10030300E309F0A3DFFA806489828A83E0A3F60815
:10031300DFFA805889828A83E0A3F208DFFA804CEF
:1003230080D280FA80C680D4806980F280338010C6
:1003330080A680EA809A80A880DA80E280CA80332F
:1003430089828A83ECFAE493A3C8C582C8CCC583A7
:10035300CCF0A3C8C582C8CCC583CCDFE9DEE78077
:100363000D89828A83E493A3F608DFF9ECFAA9F0F6
:10037300EDFB2289828A83ECFAE0A3C8C582C8CC4C
:10038300C583CCF0A3C8C582C8CCC583CCDFEADE65
:10039300E880DB89828A83E493A3F208DFF980CCC7
:1003A30088F0EF60010E4E60C388F0ED2402B404C0
:1003B3000050B9F582EB2402B4040050AF23234567
:0603C30082239003237366
:1003C900BB010689828A83E0225002E722BBFE0232
:0903D900E32289828A83E4932265
:1003E200BB010CE58229F582E5833AF583E02250D0
:1003F20006E92582F8E622BBFE06E92582F8E2221A
:0D040200E58229F582E5833AF583E4932233
:10040F00BB010FF8E58229F582E5833AF583E028F1
:10041F00F0225009C58229F8E58226F622BBFE0993
:10042F00C58229F8E22582F222F8EA2583F583E9CD
:03043F00932822DD
:10044200F8BB010DE58229F582E5833AF583E8F0F0
:10045200225006E92582C8F622BBFE05E92582C89C
:02046200F22284
:060464008A838982E47323
:00000001FF
