:030000000201AC4E
:0C01AC00787FE4F6D8FD7581420201F373
:1003260020202020202020202020202020202020C7
:0B033600000000070B0D0E70B0D0E0BF
:1002FC0011214142434445464748494A4B4C4D4ED7
:10030C004F500011326162636465666768696A6B9D
:06031C006C6D6E6F7000B5
:10011200E4F509780A7C00FD7BFF7A037937FE7FDC
:10012200021200D31203567598E8E4F58775892008
:10013200AF168F8B8F8DD28E1202388F08E590B456
:100142000FFBE508F460F10509E509B4110C7FC065
:100152001203901202C37FC08012E509B421107508
:1001620009017F801203901202C37F80120390E57F
:1001720008C3940A40047F3780027F30E5082FF5D8
:100182000A7B007A00790AE4FDFC1202CCD29BE5DC
:10019200081313543F04F5993099FDC299C29B8507
:0A01A2000A993099FDC29902013A52
:10023800780E7C007D007BFF7A0379397E007F048D
:100248001200D378127C007D007BFF7A03793D7E13
:10025800007F041200D375900FE590640F605685F7
:10026800900C7F057E00120341E50C659070467581
:1002780090F0E59064F0603D85900D7F057E00125A
:100288000341E50D6590702D7F03740E2FF8E6B5D8
:100298000C028F0C74122FF8E6B50D07EF25E02538
:1002A800E0F50D1FC3EF6480948050DE75900FE574
:0A02B8000C450DFF2275900F7FFF2B
:0102C2002219
:10034100EF1FAA0670011E4A600A7D7BAC051DECF9
:0403510060EE80F8E2
:010355002285
:0902C3007BFF7A037926E4FDFCBF
:1002CC008B0C8A0D890E8C0F8D10AB0CAA0DA90E00
:1002DC001200F9601A050EE50E7002050D14F912E4
:1002EC0000F9FF12039BAF10AE0F12034180DB220B
:100356007F381203907F0F1203907F061203907F5F
:0403660001020390FD
:10036A007580FFC2A2C2A0D2A1D2A2AF80EF20E7BD
:03037A00F2C2A22A
:01037D00225D
:0B039000EF6007C200F51112037E228F
:07039B00D2008F1102037E66
:10037E0012036AC2A1A20092A0851180D2A200C26D
:02038E00A222A9
:030322000116FDC4
:1001B800020112E493A3F8E493A34003F68001F24A
:1001C80008DFF48029E493A3F85407240CC8C33348
:1001D800C4540F4420C8834004F456800146F6DF17
:1001E800E4800B01020408102040809002FCE47EA9
:1001F800019360BCA3FF543F30E509541FFEE4930C
:10020800A360010ECF54C025E060A840B8E493A3D2
:10021800FAE493A3F8E493A3C8C582C8CAC583CAFD
:10022800F0A3C8C582C8CAC583CADFE9DEE780BEB5
:0103250000D7
:10000300E709F608DFFA8046E709F208DFFA803EDF
:1000130088828C83E709F0A3DFFA8032E309F608CC
:10002300DFFA8078E309F208DFFA807088828C8334
:10003300E309F0A3DFFA806489828A83E0A3F608E8
:10004300DFFA805889828A83E0A3F208DFFA804CC2
:1000530080D280FA80C680D4806980F28033801099
:1000630080A680EA809A80A880DA80E280CA803302
:1000730089828A83ECFAE493A3C8C582C8CCC5837A
:10008300CCF0A3C8C582C8CCC583CCDFE9DEE7804A
:100093000D89828A83E493A3F608DFF9ECFAA9F0C9
:1000A300EDFB2289828A83ECFAE0A3C8C582C8CC1F
:1000B300C583CCF0A3C8C582C8CCC583CCDFEADE38
:1000C300E880DB89828A83E493A3F208DFF980CC9A
:1000D30088F0EF60010E4E60C388F0ED2402B40493
:1000E3000050B9F582EB2402B4040050AF2323453A
:0600F3008223900053730C
:1000F900BB010689828A83E0225002E722BBFE0205
:09010900E32289828A83E4932237
:00000001FF
